:020000040800F2
:10000000E805002035010008F7240008C522000893
:10001000F5240008B5060008552A00080000000075
:100020000000000000000000000000004701000880
:100030003B090008000000004B010008E72600080B
:100040004F0100084F0100084F0100084F01000850
:100050004F0100084F0100084F0100084F01000840
:100060004F0100084F0100084F0100081109000866
:100070004F0100084F0100084F0100084F01000820
:100080004F0100084F0100084F0100080000000068
:100090000000000000000000000000004F01000808
:1000A0004F0100084F0100084F0100084F010008F0
:1000B0004F0100084F0100084F0100084F010008E0
:1000C0004F0100084F0100084F0100084F010008D0
:1000D0004F0100084F0100084F0100084F010008C0
:1000E0004F0100084F0100084F0100080000000008
:1000F0000000000000000000000000000000000000
:1001000000000000000000000000000000000000EF
:100110000000000000000000A52700084F010008B3
:10012000DFF80CD000F00CFA004800478D2A0008D8
:10013000E80500200648804706480047FEE7FEE73E
:10014000FEE7FEE7FEE7FEE7FEE7FEE7FEE7FEE787
:100150005927000821010008202A04DB203A21FA4F
:1001600002F00021704721FA02F3D040C2F12002D0
:1001700091400843194670472DE9FE4F81EA030478
:1001800004F0004421F0004100944FF0000B23F0F4
:10019000004350EA010402D052EA030404D10020D3
:1001A000014603B0BDE8F08FC3F30A54C1F30A550A
:1001B0002C44A4F2F3340194A0FB0254C1F31301C4
:1001C00041F48011C3F3130343F4801301FB024491
:1001D00000FB034E840A970A44EA815447EA835796
:1001E000A4FB076802958D0A05FB07854FEA932C4F
:1001F00004FB0C542705029D4FEA065847EA1637C0
:10020000B5EB08056EEB070C870E920E47EA8117D7
:1002100042EA8312A7FB0201B6EB0B0164EB000478
:100220002B0D43EA0C335E1844EB1C50DA46514662
:10023000E7FB0201C5F313044FEA0B3343EA1453FF
:100240004FEA0432019C43EA0603A4F10C04029431
:10025000009CCDE900B400F021F9A2E72DE9F04DB2
:1002600081EA030404F0004B21F0004514464FF0EE
:10027000000A23F0004150EA050220D054EA0102AE
:100280001DD0C5F30A570246C5F31303C1F313008B
:10029000C1F30A5640F4801543F48013A7EB060817
:1002A000101BD64608F2FD3873EB050002D308F1A7
:1002B000010801E092185B41B8F1000F03DA002059
:1002C0000146BDE8F08D00204FF4801106468446BB
:1002D0000EE0171B73EB050705D3121B63EB050339
:1002E00006434CEA010C49084FEA300092185B4182
:1002F00050EA0107EDD152EA030012D082EA04006D
:1003000083EA0501084303D100224FF0004308E0CF
:10031000101BAB4102D20122002302E06FF0010268
:1003200053101AEB06004CEB085110EB0A0041EB9E
:100330000B01BDE8F04D00F0A4B896230022114651
:1003400000F072B80EB540F2334102910021CDE9C0
:1003500000110A460B4600F0A1F803B000BD20F0E2
:100360000040C10DC0F3160040F400007F2901DAFF
:1003700000207047962903DCC1F19601C840704700
:10038000963988407047C1F30A5210B5C1F3130182
:1003900040F2FF3341F480119A4201DA002010BD8F
:1003A00040F233439A42A2F2334203DC5242FFF757
:1003B000D3FE10BD904010BD00F0004230F0004070
:1003C0000AD0C10D01F56071C0F3160042EA015177
:1003D000C20840071143704700200146704701F0F2
:1003E000004330B421F0004150EA010206D00A0D6A
:1003F000A2F56072C1F31301002A02DC30BC0020B8
:100400007047440F44EAC104C100E01830BC00EB5F
:10041000C250AFF300800029A8BF7047401C4900BC
:1004200008BF20F00100704710B4B0FA80FC00FA59
:100430000CF050EA010404BF10BC704749B1CCF184
:10044000200421FA04F411FA0CF118BF0121214310
:100450000843A3EB0C01CB1D0106000A002BBEBF15
:10046000002010BC704700EBC35010440029A4BF0B
:1004700010BC7047401C490008BF20F0010010BCB0
:10048000704710B5002B08DA401C41F100019218AA
:100490005B411A4301D120F0010010BD2DE9F04D60
:1004A00092469B4611B1B1FA81F202E0B0FA80F2B5
:1004B0002032904600F056F804460F4640EA0A0003
:1004C00041EA0B0153465A46084303D120463946B8
:1004D000BDE8F08D114653EA010015D0C8F1400285
:1004E0005046FFF739FE05460E46504659464246ED
:1004F00000F038F8084301D0012000E00020054357
:1005000046EAE0762C4337430A984FEA4453A0EB7F
:1005100008004FEAD4240A304FF0000244EA47545E
:100520004FEAD72502D500200146D1E70105101971
:100530006941DDE9084500196941BDE8F04DA0E7D2
:10054000064C074D06E0E06840F0010394E8070020
:1005500098471034AC42F6D3FFF7E6FD082C0008AC
:10056000282C0008202A04DB203A00FA02F100209F
:1005700070479140C2F1200320FA03F319439040E1
:100580007047000070B5044600688168C943C90718
:100590001CD1816821F00101816000F0AFFE0546A9
:1005A0000FE000BF00F0AAFE401B022809D9A06A94
:1005B00040F01000A062E06A40F00100E06201201B
:1005C00070BD20688068C043C007EBD0002070BDBC
:1005D00010B50146406A826A12F0500F05D0006AD9
:1005E000026BBDE8104008461047816A41F4007173
:1005F000816201688968C1F3424107290CD1C16851
:1006000051B9816A21F480718162816AC90403D47D
:10061000816A41F00101816200F0A0FA10BD10B5BD
:10062000406A816A41F040018162C16A41F004017F
:10063000C16200F095FA10BD10B5406A00F08FFA63
:1006400010BD0000F8B500260446009600688168D9
:10065000C943C90728D0816841F00101816013486E
:1006600013490068B0FBF1F000E0401E0090002844
:10067000FBD100F043FE054611E000BF00F03EFE56
:10068000401B02280BD9A06A40F01000A062E06A6B
:1006900040F00100E06284F824600120F8BD206889
:1006A0008068C043C007E9D10020F8BD00000020E9
:1006B00040420F00FEE700002DE9F041284C4FF4C6
:1006C000007500222946204600F012FE254F6614D0
:1006D00000223146384600F00BFE4FF480780022AD
:1006E0004146204600F004FE1F484179062901D208
:1006F000491C00E000214171C8B207282ED2DFE872
:1007000000F004070B12181C22000122294605E004
:1007100001223146384602E0012241462046BDE82A
:10072000F04100F0E5BD01223146384600F0E0FD21
:10073000EBE701223146384602E0012229462046F5
:1007400000F0D6FDE8E701222946204600F0D0FD62
:1007500001224146204600F0CBFDD9E7BDE8F081FB
:10076000000C0140001001400C0000200D4910B5A4
:100770000B4AB1F80210002032F81030A3F16404E3
:100780008C4202DA6433994203D3401CC0B205287C
:10079000F2D3052802D0401CC0B210BD002010BD0D
:1007A000440000205800002010B5064801F018FF52
:1007B0000448183001F014FF0248BDE81040303002
:1007C00001F0DEBE8401002010B51C4C2079002809
:1007D00018D0FFF7CBFF70B3E178002912D10121C7
:1007E000E17004F10C01084410F8010C062809D24C
:1007F000DFE800F008030B0F171D1148817C11B1D1
:100800000021817410BD0121FBE7BDE8104001F01B
:100810009DBE0B48303806E0012100E00021417206
:1008200010BD07481838417A0029F7D1F4E7BDE830
:100830001040FFF741BF0020E07010BD0C00002009
:10084000B401002070B52F480079002859D0062047
:1008500000F0A0F82B4C123420800A2002F00AF994
:10086000062000F097F82188084420800A2002F032
:1008700001F9062000F08EF821880025084480B296
:100880000321B0FBF1F020806188884200D2E5713D
:10089000A188884202D80120A07100E0A571E0790A
:1008A00040B1A07928B3002000F094F8BDE8704072
:1008B00001F032BE1448857401F0B2FE124830389F
:1008C000457201F0E8FE10481838457201F0E3FE69
:1008D000002001F045FE0D4C00228021204600F052
:1008E00007FD01224021204600F002FD00F0A4FD9A
:1008F000FEE7012000F06EF8BDE87040002001F036
:1009000015BE70BD0C000020B4010020000C014099
:10091000014800F06BBA00009800002010B5046890
:1009200063604368102B036803D099600068C2605D
:1009300010BD9A600068C16010BDFEE72DE9F0416E
:100940000446114830F81400FFF7F7FC0F4E054637
:1009500006F11C0050F82400FFF72EFD00220C4B7E
:10096000FFF70AFC07460C462846FFF725FD3A46E6
:100970002346FFF701FCFFF732FDB060FFF7EFFC05
:1009800080B2BDE8F0810000580000200C0000207B
:1009900000408F4070B50C4931F810500B4951F8A8
:1009A0002000FFF709FD0022094BFFF7E5FB064693
:1009B0000C462846FFF7C6FC32462346FFF7DCFB11
:1009C000FFF7E1FC80B270BD580000202800002035
:1009D00000408F400549064B087008B1012200E035
:1009E00000228021184600F083BC00000C0000208B
:1009F000000C0140F8B50025009590F82420AE4683
:100A0000012A1ED0012280F824204A681F244FF4B6
:100A10007873072A17D20668776B93FAA3FC521EE5
:100A2000BCFA8CFC02FB0CFC04FA0CF4A74393FA0E
:100A3000A3F3B3FA83F30C685A43944027437763D4
:100A40002DE00220F8BD06680D2A14D2376B93FA08
:100A5000A3FCD21FBCFA8CFC02FB0CFC04FA0CF4C5
:100A6000A74393FAA3F3B3FA83F30C685A43944071
:100A70002743376313E0F76A93FAA3FC0D3ABCFAF5
:100A80008CFC02FB0CFC04FA0CF4A74393FAA3F3CE
:100A9000B3FA83F30C685A4394402743F7620A6819
:100AA0003823072406680A2A14D3F76893FAA3FCAC
:100AB0000A3ABCFA8CFC02FB0CFC04FA0CF4A743C7
:100AC00093FAA3F3B3FA83F38C685A439440274311
:100AD000F76012E0376993FAA3FCBCFA8CFC02FBC6
:100AE0000CFC04FA0CF4A74393FAA3F3B3FA83F3D0
:100AF0008C685A439440274337610A68102A01D012
:100B0000112A20D1124B02689A4217D193681B0216
:100B100019D4936843F4000393600968102912D133
:100B20000C490D4A0968B1FBF2F101EB8101490062
:100B300000E0491E00910029FBD104E0816A41F0E8
:100B400020018162012580F824E02846F8BD0000DC
:100B5000002401400000002040420F007047704711
:100B6000704700002DE9F04104004FF0000514D05B
:100B7000A06A002628B9E66284F82460204600F0C6
:100B80008BF82046FFF7FEFCA16A01F0100101433B
:100B900004D0A06A40F01000A06277E0A16A21F4BE
:100BA000885141F00201A1626268E16902270A43AB
:100BB000E16897FAA7F70B46B7FA87F7B9400A43F7
:100BC000A1684FF48077B94208D0012906D00021EE
:100BD000D4F814C0BCF1010F02D00AE03946F7E79F
:100BE000F3B1A36A43F02003A362E36A43F0010375
:100BF000E3622368D3F804C02CF4694C4CEA010C7E
:100C0000C3F804C021688B68DFF884C003EA0C03D2
:100C100013438B60A168B94210D001290ED016E0B1
:100C2000A3694FF4604C9CFAACFC5B1EBCFA8CFCD4
:100C300003FA0CF30B4343F40061DAE725694FF440
:100C4000700191FAA1F16D1EB1FA81F18D40216818
:100C5000CB6A23F470032B43CB62216889680D4B68
:100C60001940914208D1E662A16A21F0020141F0E7
:100C70000101A162BDE8F081A06A20F0020040F00D
:100C80001000A062E06A40F00100E0620120F1E79C
:100C9000FDF7E1FFFE0E1FFF30B50546006819495C
:100CA00085B088422BD11848816941F40071816177
:100CB0008069032400F400700490F320CDE900045F
:100CC0006946124800F028FA0120CDE9000469467F
:100CD0000F4800F021FA104C0E48802120600020BF
:100CE0006060C4E90201490021618900616120213D
:100CF000C4E90610204600F0AFF92C62656205B029
:100D000030BD0000002401400010024000080140F6
:100D1000000C014008000240980000202DE9F0413D
:100D2000044690F8240016460F4601280ED00120F4
:100D300084F824002046FFF785FC05004FF00000F2
:100D400006D084F824002846BDE8F0810220FBE7A5
:100D5000A16A40F60162914341F48071A162A16AE7
:100D600021F48011A16221684968490505D5A16A6D
:100D700021F4005141F48051A162A16AC90404D553
:100D8000E16A21F00601E16200E0E06284F82400FB
:100D9000216A13488862216A1248C862216A12488F
:100DA000086321686FF0020008602068816841F4E0
:100DB00080718160216833464C313A46206A00F0E8
:100DC00073F920688168C1F342410729816803D023
:100DD00041F480118160B6E741F4A001FAE7000018
:100DE000D1050008390600081F0600082DE9F05F4C
:100DF000DFF860820446D8F80020DFF858B2954D3D
:100E0000944E944F0068DFF84C92DFF848A20BF143
:100E1000080B1C35303644374FF400614FF4004C5A
:100E20004FF4002E09F158090AF16C0A584501D116
:100E3000082316E0A84201D1802312E0B04201D17C
:100E40000B460EE0B84201D163460AE0484501D1A5
:100E5000734606E0504502D14FF4000301E04FF025
:100E600000631A4231D00268D24312072DD40268BF
:100E700022F0080202602068584501D1082114E0E0
:100E8000A84201D1802110E0B0420ED0B84201D179
:100E900061460AE0484501D1714606E0504502D15D
:100EA0004FF4000101E04FF00061C8F80410606BDE
:100EB00040F001006063042084F82100002084F8E1
:100EC0002000216B09B1204688476248D0F800C055
:100ED0004FF4806120680A010B044FF4802E5845BE
:100EE00002D14FF0040816E0A84202D14FF04008AA
:100EF00011E0B04201D188460DE0B84201D19046E0
:100F000009E0484501D1F04605E0504502D14FF4D3
:100F1000800800E098461CEA080F33D0D0F800C0E3
:100F20006FEA0C0C5FEA4C7C2CD4D0F800C05FEA6E
:100F30008C6C05D4D0F800C02CF0040CC0F800C0B4
:100F40002068584501D1042113E0A84201D1402175
:100F50000FE0B0420DD0B84201D1114609E048453A
:100F600001D1714605E0504502D14FF4800100E007
:100F7000194638484160112084F82100E16A09B11E
:100F800020468847334AD2F800C05B462068511596
:100F90004FF4005B4FF4003E984202D14FF002083C
:100FA00017E0A84202D14FF0200812E0B04201D170
:100FB00088460EE0B84201D1D8460AE0484501D142
:100FC000F04606E0504502D14FF4001801E04FF022
:100FD00000781CEA080F3BD0D0F800C06FEA0C0C78
:100FE0005FEA8C7C34D4D0F800C05FEA8C6C05D406
:100FF000D0F800C02CF0020CC0F800C02068984265
:1010000001D1022114E0A84201D1202110E0B04218
:101010000ED0B84201D159460AE0484501D1714687
:1010200006E0504502D14FF4001101E04FF000718D
:101030005160606B6063012084F82100002084F817
:101040002000A16A002903D02046BDE8F05F0847D0
:10105000BDE8F09F0000024070B520B190F821106B
:10106000002411B103E0012070BD80F8204002216E
:1010700080F8211003681A6843F6F0718A43D0E9BA
:1010800001152943D0E903563543294345692943CE
:1010900085692943C56929431143196044630121C6
:1010A00080F82110002070BD70B5044690F8200033
:1010B000012823D0012084F82000022084F8210098
:1010C0002068056825F0010505602046FFF726FC2D
:1010D0002068016841F0020101602068016841F068
:1010E000040101602068016841F008010160206886
:1010F000016841F001010160002070BD022070BD57
:1011000031B500F0FBF8044600F0F8F80099001B38
:101110008842F9D338BD00002DE9F84FDFF8ACA1C3
:1011200000220AF1040B144601274FF00F090BF1BE
:10113000040E00BF0B6807FA04F52B40AB4276D1D2
:10114000DFF88CC14E68A6EB0C0866452BD00DDC91
:10115000032E34D005DC36B3012E19D0022E2FD148
:101160001BE0112E16D0122E2AD119E0B8F5881FD7
:1011700019D006DCB8F5803F15D0B8F5801F1FD117
:1011800011E0B8F5001F0ED0B8F5041F18D10AE021
:10119000CA6815E0CA68121D12E0CA6808320FE07A
:1011A000CA680C320CE08A682AB1012A4FF00802A2
:1011B00003D0456104E0042202E0056100E0002262
:1011C000FF2B01D8054601E000F104054FEA840633
:1011D00001D9A6F12006D5F800C009FA06F82CEAD4
:1011E000080C02FA06F64CEA060CC5F800C04D6879
:1011F000ED0065D5374DAE6946F00106AE61AD69CB
:1012000024F0030605F001050095334D06EB050CAF
:10121000DCF80850A607360F09FA06F825EA080593
:10122000DFF8B880404503D14FF0000817E047E0F1
:10123000DFF8AC80404502D14FF001080FE0DFF845
:10124000A480404502D14FF0020808E0DFF8988002
:10125000404502D14FF0030801E04FF0040808FABE
:1012600006F848EA0508CCF808804D68DAF800600E
:10127000ED03002D554601DA1E4300E09E432E602B
:101280004D68DBF80060AD03002D5D4601DA1E43BA
:1012900000E09E432E604D68DEF80060ED02002DF8
:1012A000754601DA1E4300E09E432E604D68AD0294
:1012B000002D0E4D2E6801DA1E4300E09E432E6085
:1012C000641C102CFFF436AFBDE8F88F0004014019
:1012D0000000111000100240000001400008014011
:1012E000000C014000100140001401400C040140BA
:1012F0000AB1016170470904FBE70000014800687A
:10130000704700000400002002480168491C016089
:10131000704700000400002010B5032000F07AF8A8
:10132000002000F004F800F013F8002010BD10B504
:10133000044600F09BF94FF47A71B0FBF1F000F035
:1013400035FD00222146501E00F044F8002010BD5B
:10135000184808B5816941F001018161806900F098
:1013600001000090032000F055F8002211466FF0B4
:101370000B0000F02FF8002211466FF00A0000F079
:1013800029F8002211466FF0090000F023F800222E
:101390001146101F00F01EF800221146501E00F0EA
:1013A00019F80548416821F0E06141F000714160A1
:1013B00008BD0000001002400000014000F01F02C4
:1013C0000121914040094FF0E02202EB8000C0F87B
:1013D00000117047F0B40E4B1B680C46C3F3022398
:1013E000C3F10705042D00D90425191D072901D2D1
:1013F000002300E0DB1E012606FA05F1491E21400C
:1014000099409E40761E16403143F0BC01F074B8FE
:101410000CED00E0064900F0070208684FF6FF03F4
:10142000184040EA0220034A104308607047000059
:101430000CED00E00000FA050548016841F00201EA
:1014400001600448016841F00401016030BF704749
:101450000070004010ED00E02DE9F84305460078EB
:101460003D4CC0076DD0E06940F08050E061E0691C
:101470003A4E00F080500090306840F48070306048
:10148000FFF73CFF074604E0FFF738FFC01B642866
:101490002DD83068C005F7D5206AA98800F44070BF
:1014A00001F4407188424CD0206A012632042C4954
:1014B00092FAA2F3B3FA83F320F4407041F8236068
:1014C00092FAA2F2B2FA82F2002341F822302062AC
:1014D000800730D5FFF712FFB046074641F2883942
:1014E000022607E0FFF70AFFC11B494502D9032086
:1014F000BDE8F88396FAA6F0B0FA80F040F040001C
:10150000B8EB501F01D120680BE096FAA6F0B0FAB4
:1015100080F040F04000B6EB501F01D1206A00E09F
:10152000606A96FAA6F2B2FA82F202F01F0208FA94
:1015300002F10842D6D0206A696820F4407008435E
:1015400020622878800705D56068A96820F44040AB
:10155000084360600020CBE70010024000700040AC
:10156000000442422DE9F041054600783E4C8007D8
:1015700005D56068A96820F0F0000843606028780D
:10158000C00758D069680120012903D002291ED064
:1015900002231EE04FF400331BE000BF93FAA3F3D5
:1015A000B3FA83F303F01F03984002421DD0606832
:1015B00020F0030008436060FFF7A0FE074668685C
:1015C00041F28836012818D0022822D02FE04FF0AF
:1015D000007393FAA3F2B2FA82F242F020025209A7
:1015E00001D02268DAE7626AD8E70120BDE8F0811D
:1015F000FFF784FEC01BB04217D86068C0F38100BB
:101600000128F5D117E000BFFFF778FEC01BB042FC
:101610000BD86068C0F381000228F5D10BE000BF51
:10162000FFF76CFEC01BB04201D90320DEE7606803
:1016300010F00C0FF4D12878400705D56068E968F0
:1016400020F4E060084360602878000706D56068F1
:10165000296920F4605040EAC10060600020FFF773
:1016600066FE0020C2E700000010024000B500F056
:1016700017F808494968F02292FAA2F201F0F00145
:10168000B2FA82F2D140044A515CC8400349086072
:1016900000BD000000100240F82B000800000020F0
:1016A00010B51FA288B0D2E90003D2E90212CDE939
:1016B0000003CDE902121EA305ACD3E901011A68AB
:1016C000DB6804920BC41E4B5A681E4802F00C01E2
:1016D000042902D0082902D0401008B010BD4FF4F0
:1016E000701494FAA4F402F47011B4FA84F421FA98
:1016F00004F1D2031DF801100ED5DA6A0F2393FA14
:10170000A3F302F00F02B3FA83F3DA4004AB9A5C5E
:10171000B0FBF2F04843E0E70B484843DDE7000048
:1017200002030405060708090A0B0C0D0E0F101022
:101730000102030405060708090A0B0C0D0E0F1021
:10174000001002400024F40000093D002DE9F84F8C
:1017500005460078F94EC0074FF0010425D07068A7
:101760006704C0F38100012807D07068C0F38100CE
:1017700002281BD17068C00318D597FAA7F0B0FAF9
:1017800080F040F02000400901D0306800E0706A2D
:1017900097FAA7F1B1FA81F101F01F0104FA01F102
:1017A000084202D06868002876D081E0306820F4D2
:1017B00080303060306820F480203060FFF79EFD7C
:1017C000804605E0FFF79AFDA0EB080064287CD86E
:1017D00097FAA7F0B0FA80F040F02000400901D05D
:1017E000306800E0706A97FAA7F1B1FA81F101F070
:1017F0001F0104FA01F10842E4D16868B0F5803FA6
:101800000BD010B1B0F5A02F11D0306820F480308B
:101810003060306820F4802002E0306840F480308E
:101820003060686820B3FFF769FD80460AE03068E1
:1018300040F480203060F0E7FFF760FDA0EB080087
:101840006428C4D897FAA7F0B0FA80F040F02000DE
:10185000400901D0306800E0706A97FAA7F1B1FA48
:1018600081F101F01F0104FA01F10842E4D01FE008
:10187000FFF744FD804605E0FFF740FDA0EB0800C0
:101880006428A4D897FAA7F0B0FA80F040F02000BE
:10189000400902D0306801E0B1E0706A97FAA7F120
:1018A000B1FA81F101F01F0104FA01F10842E3D11C
:1018B0002878DFF88C8280074FF000094FF002078C
:1018C00032D5706810F00C0F00E084E14FF0F80B97
:1018D00007D07068C0F38100022826D17068C00369
:1018E00023D497FAA7F0B0FA80F040F02000400926
:1018F00001D0306800E0706A97FAA7F1B1FA81F17F
:1019000001F01F0104FA01F1084202D02869012800
:1019100075D130689BFAABF26969B2FA82F220F0B5
:10192000F80091400843306059E0286988B394FA80
:10193000A4F1B1FA81F148F82140FFF7DFFC8246BB
:1019400006E000BFFFF7DAFCA0EB0A00022898D8F7
:1019500097FAA7F0B0FA80F040F02000400901D0DB
:10196000306800E0706A97FAA7F1B1FA81F101F0EE
:101970001F0104FA01F10842E4D030689BFAABF28F
:1019800020F0F8016869B2FA82F2904001433160B8
:1019900025E0FFE794FAA4F2B2FA82F248F8229026
:1019A000FFF7ACFC824605E0FFF7A8FCA0EB0A00BD
:1019B0000228CCD897FAA7F0B0FA80F040F02000C7
:1019C000400901D0306800E0706A97FAA7F1B1FAD7
:1019D00081F101F01F0104FA01F10842E4D12878F5
:1019E00000076AD55748A969A9B394FAA4F1B1FAD6
:1019F00081F140F82140FFF781FC824606E0A6E134
:101A0000FFF77CFCA0EB0A000228A0D897FAA7F009
:101A1000B0FA80F040F06000B4EB501F01D13068A4
:101A20000BE097FAA7F0B0FA80F040F06000B7EB57
:101A3000501F01D1306A00E0706A97FAA7F1B1FA3D
:101A400081F101F01F0104FA01F21042D8D0012007
:101A5000FFF756FB31E0FFE794FAA4F2B2FA82F204
:101A600040F82290FFF74AFC824605E0FFF746FC6B
:101A7000A0EB0A0002289CD897FAA7F0B0FA80F0F1
:101A800040F06000B4EB501F01D130680BE097FAD2
:101A9000A7F0B0FA80F040F06000B7EB501F01D122
:101AA000306A00E0706A97FAA7F1B1FA81F101F0AB
:101AB0001F0104FA01F21042D8D12878400773D5EB
:101AC000F06940F08050F061F069DFF87CB000F020
:101AD00080500090DBF8001041F48071CBF80010CA
:101AE000FFF70CFC824605E0FFF708FCA0EB0A00BC
:101AF000642870D8DBF80000C005F5D5306A20F006
:101B000001003062306A20F004003062FFF7F6FB1B
:101B1000834641F2883A05E0FFF7F0FBA0EB0B01AA
:101B2000514558D897FAA7F0B0FA80F040F040003D
:101B3000B4EB501F0AD1306814E0000000100240DE
:101B400000004242800442420070004097FAA7F031
:101B5000B0FA80F040F04000B7EB501F01D1306A7E
:101B600000E0706A97FAA7F1B1FA81F101F01F0164
:101B700004FA01F10842CFD1E86801280AD008B17F
:101B8000052812D0306A20F001003062306A20F05F
:101B9000040002E0306A40F001003062E86890B36F
:101BA000FFF7ACFB83460BE059E0306A40F00400DD
:101BB0003062EFE7FFF7A2FBA0EB0B0151450AD81B
:101BC00097FAA7F0B0FA80F040F04000B4EB501F55
:101BD00002D130680CE09DE097FAA7F0B0FA80F0EF
:101BE00040F04000B7EB501F01D1306A00E0706A4E
:101BF00097FAA7F1B1FA81F101F01F0204FA02F19C
:101C00000842D7D02BE0FFE7FFF778FB834605E0DB
:101C1000FFF774FBA0EB0B0151457BD897FAA7F0B7
:101C2000B0FA80F040F04000B4EB501F01D13068B2
:101C30000BE097FAA7F0B0FA80F040F04000B7EB65
:101C4000501F01D1306A00E0706A97FAA7F1B1FA2B
:101C500081F101F01F0204FA02F10842D8D1E869CB
:101C600080B37168C1F38101022970D04FF0807197
:101C70004F0002284A4609D091FAA1F1B1FA81F148
:101C800048F82120FFF73AFB054669E08A4691FAB9
:101C9000A1F1B1FA81F1C14648F82120FFF72EFBEE
:101CA000804605E0FFF72AFBA0EB0800022854D885
:101CB00097FAA7F0B0FA80F040F02000400902D077
:101CC000306801E061E0706A97FAA7F1B1FA81F13A
:101CD00001F01F0104FA01F10842E3D1286AB0F5CE
:101CE000803F05D1F06AA96820F00F000843F06238
:101CF000D5E908010843716821F474110843706044
:101D00009AFAAAF1B1FA81F149F82140FFF7F6FAFF
:101D1000054606E021E000BFFFF7F0FA401B02286D
:101D20001BD897FAA7F0B0FA80F040F020004009E5
:101D300001D0306800E0706A97FAA7F1B1FA81F13A
:101D400001F01F0104FA01F10842E5D01DE01EE098
:101D5000FFF7D4FA401B022802D90320BDE8F88F10
:101D600097FAA7F0B0FA80F040F02000400901D0C7
:101D7000306800E0706A97FAA7F1B1FA81F101F0DA
:101D80001F0104FA01F10842E2D10020E6E7012038
:101D9000E4E74FF0E0210428086903D020F00400B4
:101DA0000861704740F00400FAE7704710B5401E24
:101DB000B0F1807F01D3012010BD4FF0E0246061BD
:101DC0000F21601700F098FB0020A0610720206120
:101DD000002010BD10B5FFF7E8FF10BD7047704739
:101DE00030B590F83820012A19D0012200F8382F98
:101DF00002234370D1E900342343D1E902452C4347
:101E000023430C6923434C69896923430B4350F8EE
:101E1000381C4B64427000210170084630BD02201E
:101E200030BD30B590F83820012A20D0012280F84A
:101E30003820022380F8393003685C6824F070048D
:101E40005C6003685C680D682C435C6003689C6898
:101E500024F080049C6003689C6849680C439C6083
:101E600080F83920002180F83810084630BD022063
:101E700030BD10B5040003D094F8390010B107E06C
:101E8000012010BD002084F83800204600F00CF836
:101E9000022084F83900211D206800F09DFC0120FB
:101EA00084F83900002010BD08B500680B4988424D
:101EB00012D10B48C16941F01001C161C069002213
:101EC00000F01000009007213620FFF783FABDE8EC
:101ED00008403620FFF772BA08BD0000001000402D
:101EE000001002400168CA6842F00102CA6000683E
:101EF000016841F00101016000207047704770B532
:101F00000446006801694FF00005C943890715D4EC
:101F1000C168C943890711D4E91E016101202076F7
:101F2000206880698007204602D0FFF7E7FF04E0C1
:101F300000F0C4F8204600F063F9257620680169B6
:101F4000C943490717D4C168C943490713D46FF07F
:101F500004010161022020762068806910F4407F2E
:101F6000204602D0FFF7CAFF04E000F0A7F82046A1
:101F700000F046F9257620680169C943090716D49F
:101F8000C168C943090712D46FF008010161042038
:101F900020762068C0698007204602D0FFF7AEFF98
:101FA00004E000F08BF8204600F02AF9257620683E
:101FB0000169C943C90617D4C168C943C90613D406
:101FC0006FF010010161082020762068C06910F4CC
:101FD000407F204602D0FFF791FF04E000F06EF84A
:101FE000204600F00DF9257620680169C943C9072C
:101FF00008D1C168C943C90704D1891E01612046BF
:1020000000F05EF920680169C943090609D4C16876
:10201000C943090605D46FF0800101612046FFF72E
:10202000DDFE20680169C943490609D4C168C94376
:10203000490605D46FF040010161204600F041F9E6
:1020400020680169C94389060BD4C168C943890660
:1020500007D46FF0200101612046BDE87040FFF712
:10206000BEBE70BD1FB501680220B1F1804F0BD01C
:102070000E4A914207D10C21CDE900100390694628
:102080000B48FFF749F81FBD4FF44061CDE9001040
:10209000039069460748FFF73FF80748416821F475
:1020A000407141F4007141601FBD000000400140DB
:1020B00000080140000C014000000140704770B56D
:1020C000044690F838000D4601280DD0012684F80A
:1020D0003860022084F8390042B1042A18D0082A56
:1020E0002AD00C2A4DD139E0022070BD206800F0C2
:1020F000C7FB2068816941F008018161206881691E
:1021000021F004018161206881692A69114311E08D
:10211000206800F0F5FB2068816941F4006181616D
:102120002068816921F480618161206881692A6960
:1021300041EA0221816124E0206800F01DFC206852
:10214000C16941F00801C1612068C16921F0040141
:10215000C1612068C1692A69114311E0206800F05B
:1021600047FC2068C16941F40061C1612068C16910
:1021700021F48061C1612068C1692A6941EA0221B4
:10218000C161383466700020207070BD10B5040045
:1021900003D094F8390010B107E0012010BD0020F1
:1021A00084F83800204600F00DF8022084F8390049
:1021B000211D206800F010FB012084F83900002068
:1021C00010BD000008B501680B48B1F1804F0BD07D
:1021D0000A4A914207D1816941F480318161806965
:1021E00000F48030009008BDC16941F00101C16177
:1021F000C06900F00100F5E7001002400040014016
:102200007047000010B504460068012200F02CFB66
:102210000B482168814208D00A48814205D00A480B
:10222000814202D00948814203D1486C40F4004009
:1022300048642068016841F001010160002010BD80
:10224000002C014000400140004401400048014092
:1022500010B504460068002200F006FB144841F265
:10226000111221689310814208D01248814205D092
:102270001148814202D01148814209D1086A1042B6
:1022800006D1086A184203D1486C20F40040486423
:102290002068016A114206D1016A194203D101681E
:1022A00021F001010160012084F83900002010BDF7
:1022B000002C014000400140004401400048014022
:1022C00070477047FEE70000FEB52348214900240F
:1022D0000160891501264461C0E9021607250561E0
:1022E0004FF460214460C161FEF73CFCCDE900463B
:1022F000694619480295FEF77DFB0220CDE9006092
:1023000069461548FEF776FB042603200096CDE9C2
:10231000010469461048FEF76DFB0524CDE900462F
:1023200069460D48FEF766FB0626CDE9006469465E
:102330000948FEF75FFBCDE9005669460648FEF7FF
:1023400059FB0820CDE9000569460348FEF752FB1A
:10235000FEBD000000240140680000202DE9F0418E
:102360002B4886B0816941F010018161816901F0DB
:1023700010010491816941F020018161816901F0BE
:1023800020010491816941F004018161816901F0BA
:1023900004010491816941F00801816180691D4E49
:1023A00000F008004FF460440490002221463046BB
:1023B000FEF79EFFDFF860804FF470770022394609
:1023C0004046FEF795FF00940124022569463046F9
:1023D00003950194FEF7A0FE4FF23E000326CDE9DF
:1023E000000669464046FEF797FE4FF41F40CDE9D0
:1023F000000669460948FEF78FFECDE9007469467C
:1024000040460395FEF788FE06B0BDE8F081000067
:102410000010024000100140000C01400008014083
:1024200010B51D4890B01B490024C0E900144FF4BA
:10243000C871C0E9024104614461FFF7A7FE0E9430
:102440000EA915480F94FFF7ECFC07940894099423
:102450004FF400500A94CDE90B4007A90E480D94A3
:10246000FFF7BEFC6020CDE90004029403940494BD
:1024700005940022694608480694FFF720FE0422CE
:1024800069460548FFF71BFE0348FFF7EBFD10B058
:1024900010BD0000004001404801002010B5144864
:1024A0008AB04FF080410024C0E900144FF4C87195
:1024B000C0E902410461FFF769FE079407A90C48CF
:1024C0000894FFF7AEFC6020CDE9000402940822D6
:1024D000694607480494FFF7F2FD0C226946044858
:1024E000FFF7EDFD0248FFF7BDFD0AB010BD00008B
:1024F000D0000020FEE770470907090E002803DA24
:1025000000F00F00024A00E0024A815470470000C8
:1025100014ED00E000E400E00348407810B1002032
:1025200000F004B80120FBE70C0000200549064B31
:10253000487008B1012200E0002240211846FEF751
:10254000D7BE00000C000020000C0140034880783A
:1025500010B1002000F004B80120FBE70C000020BF
:102560000549064B88704FF4804108B1012200E014
:1025700000221846FEF7BCBE0C00002000100140EF
:1025800070B50446807C217D884204D02046BDE899
:10259000704000F045B8002821D0A588207CFEF7C7
:1025A000CDF90646607CFEF7F5F96080E680AE4224
:1025B00004D92046BDE8704000F04EB80FD2A16AA1
:1025C000096811B12188814204D92046BDE87040D4
:1025D00000F050B8204600F03FF80120E07470BDD4
:1025E00070B50446407AE17A884204D02046BDE8BE
:1025F000704000F050B8002811D02588207AFEF7EE
:10260000C9F96080A84204D92046BDE8704000F0B6
:1026100054B804D22046BDE8704000F058B870BDF0
:1026200070B50446827CC069616A00253AB1FFF743
:10263000E9FD216AA069FFF7E5FDE57409E0FFF710
:1026400007FE216AA069FFF703FEE06A0560A06A41
:102650000560A07C207570BD816A0A681AB108689F
:10266000401E08607047C16A0A68002AF7D101213C
:10267000C1747047C16A0A68C3899A4204D3816AE7
:102680000A6803899A4203D20868401C08607047B0
:102690000121C174704770B50446427AD4E9030140
:1026A00000251AB1FFF7AEFDA57203E0FFF7D0FDDC
:1026B00060690560607AE07270BD41690A681AB1AC
:1026C0000868401E086070470121817270474169A7
:1026D0000A6883889A4203D20868401C08607047E1
:1026E00001218172704710B5FEF70EFEBDE8104063
:1026F000FFF770BB30B593B00120009000040321B8
:102700000225CDE90101CDE9075000010990684695
:10271000FFF71CF80F2000240A90CDE90B540D940C
:1027200021460AA80E94FEF71DFF0FA80F951194DD
:10273000FEF792FEFEF79AFF4FF47A71B0FBF1F0CC
:10274000FFF734FB0420FFF724FB00221146501E44
:10275000FEF740FE13B030BD0E48016841F00101A4
:10276000016041680C4A1140416001680B4A114008
:102770000160016821F480210160416821F4FE01BB
:1027800041604FF41F0181600021C1620449C00310
:1027900008607047001002400000FFF8FFFFF6FEDF
:1027A00008ED00E070B50A48FFF7A9FB08480025CE
:1027B00000684562FEF708F8064C20780A2802D027
:1027C000401C207070BDFEF73DF8257070BD000004
:1027D0000C01002008000020F0B502681C4B1D4CC5
:1027E0001D4D4FF0804E984205D0704503D0A04259
:1027F00001D0A84203D122F070064A683243174E36
:10280000174FDFF860C098420BD0704509D0A04246
:1028100007D0A84205D0B04203D0B84201D06045ED
:1028200003D122F44074CA68224302608A68C262FB
:102830000A688262984205D0B04203D0B84201D003
:10284000604501D10969016301214161F0BD0000CA
:10285000002C0140000400400008004000400140FE
:10286000004401400048014010B50123046A8B4038
:102870009C430462036A8A401343036210BD000054
:10288000F0B5026A22F001020262036A42688469BA
:10289000184E24F073050C68174F2C4323F00205E3
:1028A0008B68DFF858C02B43114DA84205D0B042C9
:1028B00003D0B84201D0604506D123F0080ECB68A2
:1028C00043EA0E0323F00403A84205D0B04203D02C
:1028D000B84201D0604505D14D6922F440721543DC
:1028E0008A692A4342608461496841630362F0BD9A
:1028F000002C0140004001400044014000480140DC
:1029000030B5026A22F010020262026A43688469EA
:102910000D6824F4E64444EA05248D6822F0200280
:1029200042EA0512104DA84207D1CD6822F080027C
:1029300042EA051222F0400208E00C4DA84205D000
:102940000B4DA84202D00B4DA84207D14D6923F48C
:10295000406343EA85038D6943EA850343608461EC
:1029600049688163026230BD002C01400040014093
:10297000004401400048014030B5026A22F48072F0
:102980000262036A4268C46923F4007324F0730589
:102990000C682C438D6843EA0523114DA84207D1EA
:1029A000CD6823F4006343EA052323F4806308E041
:1029B0000C4DA84205D00C4DA84202D00B4DA842A8
:1029C00007D14D6922F4405242EA05128D6942EA6C
:1029D00005124260C4614968C163036230BD0000F2
:1029E000002C0140004001400044014000480140EB
:1029F00030B5026A22F480520262046A4268C369F6
:102A00000D6823F4E64343EA05238D6824F400545B
:102A100044EA05340B4DA84208D00B4DA84205D01E
:102A20000A4DA84202D00A4DA84204D14D6922F4B1
:102A3000804242EA85124260C361496801640462CF
:102A400030BD0000002C0140004001400044014026
:102A500000480140FEE702E008C8121F08C1002A32
:102A6000FAD170477047002001E001C1121F002A0F
:102A7000FBD170470449897948430321B0FBF1F049
:102A8000401EFDD2704700000C0000201CB5FEF770
:102A900043FCFFF72FFEFFF761FC4F48416941F00F
:102AA000010141614069002200F0010000901146DF
:102AB0000B20FEF78FFC0B20FEF780FCFFF704FCD9
:102AC000FFF7ECFCFFF7ACFC4548444900240160EB
:102AD00045F6BF51C0E901143221C160FFF7C9F9C1
:102AE0002020CDE9000469463D48FFF79AF9FEF73A
:102AF000BDFDFDF727FC00223A4BFDF7AFFBFDF7CC
:102B000042FC394DA8713648FFF7ECF905F1120087
:102B100040F6223141804FF4486181800126C67120
:102B20004FF4FA70FEF7ECFA62B607222C49B4397A
:102B300001F11000FEF7F2F82948743800680168C6
:102B400081F00E010160264802217830A0F13C039B
:102B50000172C4724FF496718180C480234AC360AD
:102B6000C0E9044241F65832028044721830032210
:102B70000272C472FA228280C4801C4FC360042394
:102B80003F1DC0E9043742F604170780447218302D
:102B9000037405234374818041F2707101804FF406
:102BA000C871C181028108224262A0F1E401C161C1
:102BB00081610F4A0C210162111DC0E90A120475DE
:102BC0008474012249150B48FEF792FB85F80460D6
:102BD000FDF7EAFDFCE70000001002400010004095
:102BE0000C01002080842E410C0000203440014064
:102BF0003C000040000C0140000000000102030402
:102C00000102030406070809282C00080000002020
:102C100058000000562A0008802C000858000020A8
:102C200090050000662A000800366E0100000000D2
:102C30000000000000000000000000000000000094
:102C40000102030405000000000000000000000075
:102C5000CF29523ACF29523A93A08B3BF1718A3B4C
:102C600009125A3ACF29D23A4419D93AAD077A080B
:102C70004F098F0AF40B0000000000000000000064
:0400000508000121CD
:00000001FF
