:020000040800F2
:10000000000800203501000873320008D12E0008D6
:10001000713200084D070008A340000800000000EE
:100020000000000000000000000000004701000880
:10003000650B0008000000004B0100083B3C000875
:100040004F0100084F0100084F0100084F01000850
:100050004F0100084F0100084F0100084F01000840
:100060004F0100084F0100084F010008410A000835
:100070004F0100084F0100084F0100084F01000820
:100080004F0100084F0100084F0100080000000068
:100090000000000000000000000000003D0C00080F
:1000A0004F010008053D00084F0100084F010008FE
:1000B0004F010008213D00085D3D00084F01000888
:1000C0004F0100084F0100084F0100084F010008D0
:1000D0004F0100084F0100084F0100084F010008C0
:1000E000690B00084F0100084F01000800000000E4
:1000F0000000000000000000000000000000000000
:1001000000000000000000000000000000000000EF
:100110000000000000000000993D00084F010008A9
:10012000DFF80CD000F058FA0048004731410008D1
:10013000000800200648804706480047FEE7FEE723
:10014000FEE7FEE7FEE7FEE7FEE7FEE7FEE7FEE787
:10015000B93C000821010008202A04DB203A21FADA
:1001600002F00021704721FA02F3D040C2F12002D0
:10017000914008431946704730B480EA010202F00A
:10018000004530F0004221F0004015D0A0B1C0F38E
:10019000C753C2F3C754C2F31601C0F31600E41AE2
:1001A00041F4000140F400027D34914201D3641C0B
:1001B00000E04900002C02DA30BC002070474FF408
:1001C00000000023914201D3891A034340084FEAFB
:1001D0004101F7D151B1914202D14FF0004105E008
:1001E00002D24FF0010101E06FF0010103EBC450B6
:1001F000284430BC00F05BB9420005D0C0F3C752C0
:100200005242914201DC0020704700EBC150704720
:100210002DE9FE4F81EA030404F0004421F000417F
:1002200000944FF0000B23F0004350EA010402D089
:1002300052EA030404D10020014603B0BDE8F08F68
:10024000C3F30A54C1F30A552C44A4F2F3340194C5
:10025000A0FB0254C1F3130141F48011C3F3130353
:1002600043F4801301FB024400FB034E840A970A07
:1002700044EA815447EA8357A4FB076802958D0A34
:1002800005FB07854FEA932C04FB0C542705029DC0
:100290004FEA065847EA1637B5EB08056EEB070C30
:1002A000870E920E47EA811742EA8312A7FB0201EA
:1002B000B6EB0B0164EB00042B0D43EA0C335E1824
:1002C00044EB1C50DA465146E7FB0201C5F3130428
:1002D0004FEA0B3343EA14534FEA0432019C43EADA
:1002E0000603A4F10C040294009CCDE900B400F0D4
:1002F00021F9A2E72DE9F04D81EA030404F0004B57
:1003000021F0004514464FF0000A23F0004150EA66
:10031000050220D054EA01021DD0C5F30A57024657
:10032000C5F31303C1F31300C1F30A5640F480155B
:1003300043F48013A7EB0608101BD64608F2FD38DD
:1003400073EB050002D308F1010801E092185B414C
:10035000B8F1000F03DA00200146BDE8F08D00205F
:100360004FF48011064684460EE0171B73EB050719
:1003700005D3121B63EB050306434CEA010C490845
:100380004FEA300092185B4150EA0107EDD152EA82
:10039000030012D082EA040083EA0501084303D176
:1003A00000224FF0004308E0101BAB4102D20122B3
:1003B000002302E06FF0010253101AEB06004CEB31
:1003C000085110EB0A0041EB0B01BDE8F04D00F0C5
:1003D000A4B896230022114600F072B80EB540F280
:1003E000334102910021CDE900110A460B4600F08D
:1003F000A1F803B000BD20F00040C10DC0F316000D
:1004000040F400007F2901DA00207047962903DCC0
:10041000C1F19601C8407047963988407047C1F3D2
:100420000A5210B5C1F3130140F2FF3341F48011B9
:100430009A4201DA002010BD40F233439A42A2F200
:10044000334203DC5242FFF787FE10BD904010BDDF
:1004500000F0004230F000400AD0C10D01F560719B
:10046000C0F3160042EA0151C20840071143704729
:1004700000200146704701F0004330B421F00041F4
:1004800050EA010206D00A0DA2F56072C1F3130111
:10049000002A02DC30BC00207047440F44EAC1044B
:1004A000C100E01830BC00EBC250AFF3008000295F
:1004B000A8BF7047401C490008BF20F001007047EA
:1004C00010B4B0FA80FC00FA0CF050EA010404BF4A
:1004D00010BC704749B1CCF1200421FA04F411FAA0
:1004E0000CF118BF012121430843A3EB0C01CB1DE4
:1004F0000106000A002BBEBF002010BC704700EBB5
:10050000C35010440029A4BF10BC7047401C4900D0
:1005100008BF20F0010010BC704710B5002B08DAAE
:10052000401C41F1000192185B411A4301D120F0B7
:10053000010010BD2DE9F04D92469B4611B1B1FA74
:1005400081F202E0B0FA80F22032904600F056F8D4
:1005500004460F4640EA0A0041EA0B0153465A4658
:10056000084303D120463946BDE8F08D114653EAD1
:10057000010015D0C8F140025046FFF7EDFD0546D9
:100580000E4650465946424600F038F8084301D01E
:10059000012000E00020054346EAE0762C43374383
:1005A0000A984FEA4453A0EB08004FEAD4240A30DB
:1005B0004FF0000244EA47544FEAD72502D5002005
:1005C0000146D1E7010510196941DDE90845001927
:1005D0006941BDE8F04DA0E7064C074D06E0E06834
:1005E00040F0010394E8070098471034AC42F6D37A
:1005F000FFF79AFD5047000870470008202A04DBE7
:10060000203A00FA02F1002070479140C2F1200325
:1006100020FA03F3194390407047000070B5044678
:1006200000688168C943C9071CD1816821F00101B4
:10063000816001F02FF805460FE000BF01F02AF8B5
:10064000401B022809D9A06A40F01000A062E06AAD
:1006500040F00100E062012070BD20688068C04366
:10066000C007EBD0002070BD10B50146406A826A19
:1006700012F0500F05D0006A026BBDE8104008462A
:100680001047816A41F40071816201688968C1F391
:10069000424107290CD1C16851B9816A21F48071A6
:1006A0008162816AC90403D4816A41F001018162D7
:1006B00000F016FC10BD10B5406A816A41F040019F
:1006C0008162C16A41F00401C16200F00BFC10BDFF
:1006D00010B5406A00F005FC10BD0000F8B500261A
:1006E0000446009600688168C943C90728D081681C
:1006F00041F001018160134813490068B0FBF1F03B
:1007000000E0401E00900028FBD100F0C3FF05462A
:1007100011E000BF00F0BEFF401B02280BD9A06A09
:1007200040F01000A062E06A40F00100E06284F84E
:1007300024600120F8BD20688068C043C007E9D16B
:100740000020F8BD0000002040420F00FEE700003E
:1007500010B50121194801F041FD04460221174856
:1007600001F03CFD44400321144801F037FD4440B2
:100770000421124801F032FD444005210F4801F0E8
:100780002DFD444006210D4801F028FD444007217D
:100790000A4801F023FD604084B20A21074801F0B5
:1007A0001DFDA04205D10921044801F017FDAA282A
:1007B00001D0002010BD012010BD0000300100203C
:1007C0000D4910B50B4AB1F80210002032F8103074
:1007D000A3F164048C4202DA6433994203D3401CCF
:1007E000C0B20528F2D3052802D0401CC0B210BD0B
:1007F000002010BD840000209800002010B506489D
:1008000003F098F90448183003F094F90248BDE861
:100810001040303003F05EB99403002010B5154C41
:10082000A07B002824D000F037F948B120780228B6
:1008300004D100F063F900F018F9606300F07EF96C
:100840000D48807A28B1002000F086FA02F06AFF95
:100850000AE0A07910B100F075FA02E0012000F082
:100860007BFA002002F068FFBDE8104003F048B8B2
:1008700010BD000018000020F403002010B51B4C30
:10088000A07B002818D0FFF79BFF60B3217B0029D5
:1008900012D104F1450201211044217310F8010C1A
:1008A000062809D2DFE800F008030B0F171D1048D7
:1008B000817C11B10021817410BD0121FBE7BDE8ED
:1008C000104002F049BF0A48303806E0012100E03C
:1008D0000021417210BD06481838417A0029F7D12D
:1008E000F4E7E17210BD0020207310BD1800002055
:1008F000C403002070B5454CA07B00287ED00020AA
:1009000000F0F6F9A0820A2003F006FC002000F0B7
:10091000EFF9A18A0844A0820A2003F0FDFB002021
:1009200000F0E6F9A18A0325084480B2B0FBF5F097
:10093000A082072000F092F9354C20800A2003F0B5
:10094000EBFB072000F08AF92188084420800A2068
:1009500003F0E2FB072000F081F92188084480B20F
:10096000B0FBF5F02080062000F0C2F960800A207C
:1009700003F0D2FB062000F0BBF9618808446080D8
:100980000A2003F0C9FB062000F0B2F96188084490
:1009900080B2B0FBF5F06080E1880025884200D28B
:1009A000E5722188A288914200D9E57221898842A6
:1009B00002D80120A07200E0A572E07A002823D1BD
:1009C00013483038857403F0D5F811486038457203
:1009D00003F00BF90E484838457203F006F9002081
:1009E00002F0C4FE00224FF400710A4800F04CFEF1
:1009F0000122D102084800F047FE00E004E002F0C6
:100A00006BFD00F0F1FEFEE770BD00001800002055
:100A1000F4030020000C0140000801400748817ADF
:100A200031B1002181728079002806D003F058BED0
:100A3000017A002901D0012181727047180000203D
:100A4000014800F093BB0000F800002010B50468D6
:100A500063604368102B036803D099600068C2602C
:100A600010BD9A600068C16010BD10B501046FF040
:100A7000030406D4FFF7ADFC2146BDE81040FFF7A4
:100A8000BBBBC043401C80B2FFF7A3FC2146FFF76D
:100A9000B3FB80F0004010BD70B5164C00252078E7
:100AA00008B1012070BD14484FF400530022C0E982
:100AB000003200F11001826011200B60C1E90102D7
:100AC0000220C86003F010FD03F0B0FC80B1CC2020
:100AD00003F0FAFC4E2003F0F7FC4B2003F0F4FC8B
:100AE000462003F0F1FC7F2003F0EEFC0120207093
:100AF000284670BD18000020A800002070B50E4EDA
:100B000000253078022814D103F090FC80B1CC206D
:100B100003F0DAFCBE2003F0D7FC002403F058FCFD
:100B2000A040641C2844E4B285B2102CF6D3012006
:100B30003070284670BD00001800002030B5084D08
:100B40000024287850B103F071FC0446CC2003F057
:100B5000BBFC442003F0B8FC02202870204630BDC6
:100B600018000020FEE700002DE9F047294F386803
:100B7000DFF8A490DFF8A480294C40044FF0000572
:100B80000AD528480168486A6060A278E2B14D62DF
:100B90002570A57088F80050386800040AD52248EE
:100BA0000168486AA060E2780AB34D626570E5703A
:100BB00088F800504FF4804000F06EFCBDE8F0472C
:100BC0004FF4004000F068BC267866B14D62FFF734
:100BD00000FC01464846FFF7CFFA14490860144864
:100BE0000168491C016086F001002070D2E7667838
:100BF00066B14D62FFF7EDFB01464846FFF7BCFAD0
:100C00000C4908600C480168491C016086F001002D
:100C10006070CDE71404014000401C46270000200E
:100C20000C000020140200205002002030000020A0
:100C3000440000203400002048000020064810B581
:100C40000068C00501D502F015FBBDE810404FF467
:100C5000807000F021BC0000140401402DE9F04137
:100C60000446114830F81400FFF7B3FB0F4E054659
:100C700006F14C0050F82400FFF7EAFB00220C4B71
:100C8000FFF7C6FA07460C462846FFF7E1FB3A464F
:100C90002346FFF7BDFAFFF7EEFBB062FFF7ABFBB1
:100CA00080B2BDE8F081000098000020180000200C
:100CB00000408F4010B50720FFF7D0FFFFF789FBFA
:100CC000FFF7C6FB074A084BFFF7A2FAFFF7D3FB73
:100CD000FFF791FB044680B2FFF77BFB03494862B4
:100CE000A0B210BD9A9999999999B93F180000201E
:100CF0002DE9F0410446104830F814600F4850F8D0
:100D00002400FFF7A5FB00220D4BFFF781FA0746F1
:100D10000D463046FFF762FB3A462B46FFF778FA5E
:100D2000FFF77DFB85B2062C03D0FFF7C3FF281A1F
:100D300085B22846BDE8F0819800002064000020BC
:100D400000408F400348407810B1002000F004B804
:100D50000120FBE7180000200549064B48704FF4BE
:100D6000007108B1012200E00022184600F08CBC9E
:100D700018000020000C0140F8B50025009590F8FF
:100D80002420AE46012A1ED0012280F824204A6881
:100D90001F244FF47873072A17D20668776B93FAEB
:100DA000A3FC521EBCFA8CFC02FB0CFC04FA0CF4F3
:100DB000A74393FAA3F3B3FA83F30C685A4394401E
:100DC000274377632DE00220F8BD06680D2A14D270
:100DD000376B93FAA3FCD21FBCFA8CFC02FB0CFC11
:100DE00004FA0CF4A74393FAA3F3B3FA83F30C6861
:100DF0005A4394402743376313E0F76A93FAA3FCFE
:100E00000D3ABCFA8CFC02FB0CFC04FA0CF4A74370
:100E100093FAA3F3B3FA83F30C685A43944027433D
:100E2000F7620A683823072406680A2A14D3F76889
:100E300093FAA3FC0A3ABCFA8CFC02FB0CFC04FA01
:100E40000CF4A74393FAA3F3B3FA83F38C685A43E1
:100E500094402743F76012E0376993FAA3FCBCFA89
:100E60008CFC02FB0CFC04FA0CF4A74393FAA3F3EA
:100E7000B3FA83F38C685A439440274337610A6876
:100E8000102A01D0112A20D1124B02689A4217D1A0
:100E900093681B0219D4936843F4000393600968B4
:100EA000102912D10C490D4A0968B1FBF2F101EB8E
:100EB0008101490000E0491E00910029FBD104E0B6
:100EC000816A41F020018162012580F824E02846F2
:100ED000F8BD0000002401400000002040420F0047
:100EE00070477047704700002DE9F04104004FF053
:100EF000000514D0A06A002628B9E66284F82460B0
:100F0000204600F08BF82046FFF788FBA16A01F02D
:100F10001001014304D0A06A40F01000A06277E005
:100F2000A16A21F4885141F00201A1626268E1697D
:100F300002270A43E16897FAA7F70B46B7FA87F743
:100F4000B9400A43A1684FF48077B94208D001291B
:100F500006D00021D4F814C0BCF1010F02D00AE081
:100F60003946F7E7F3B1A36A43F02003A362E36ACB
:100F700043F00103E3622368D3F804C02CF4694C06
:100F80004CEA010CC3F804C021688B68DFF884C008
:100F900003EA0C0313438B60A168B94210D0012906
:100FA0000ED016E0A3694FF4604C9CFAACFC5B1EBB
:100FB000BCFA8CFC03FA0CF30B4343F40061DAE750
:100FC00025694FF4700191FAA1F16D1EB1FA81F11A
:100FD0008D402168CB6A23F470032B43CB622168D8
:100FE00089680D4B1940914208D1E662A16A21F04F
:100FF000020141F00101A162BDE8F081A06A20F088
:10100000020040F01000A062E06A40F00100E062DF
:101010000120F1E7FDF7E1FFFE0E1FFF30B50546A9
:101020000068184985B088422AD11748816941F47F
:10103000007181618069032400F400700490F32042
:10104000CDE900046946114800F032FA009469467F
:101050000F48019400F02CFA0F4C0E4880212060BC
:1010600000206060C4E902014900216189006161DA
:101070002021C4E90610204600F0AEF92C6265621A
:1010800005B030BD002401400010024000080140BE
:10109000000C014008000240F80000202DE9F0415A
:1010A000044690F8240016460F4601280ED0012071
:1010B00084F824002046FFF711FB05004FF00000E4
:1010C00006D084F824002846BDE8F0810220FBE722
:1010D000A16A40F60162914341F48071A162A16A64
:1010E00021F48011A16221684968490505D5A16AEA
:1010F00021F4005141F48051A162A16AC90404D5D0
:10110000E16A21F00601E16200E0E06284F8240077
:10111000216A13488862216A1248C862216A12480B
:10112000086321686FF0020008602068816841F45C
:1011300080718160216833464C313A46206A00F064
:1011400073F920688168C1F342410729816803D09F
:1011500041F480118160B6E741F4A001FAE7000094
:1011600069060008D1060008B70600082DE9F05FFF
:10117000DFF860820446D8F80020DFF858B2954DB9
:10118000944E944F0068DFF84C92DFF848A20BF1C0
:10119000080B1C35303644374FF400614FF4004CD7
:1011A0004FF4002E09F158090AF16C0A584501D193
:1011B000082316E0A84201D1802312E0B04201D1F9
:1011C0000B460EE0B84201D163460AE0484501D122
:1011D000734606E0504502D14FF4000301E04FF0A2
:1011E00000631A4231D00268D24312072DD402683C
:1011F00022F0080202602068584501D1082114E05D
:10120000A84201D1802110E0B0420ED0B84201D1F5
:1012100061460AE0484501D1714606E0504502D1D9
:101220004FF4000101E04FF00061C8F80410606B5A
:1012300040F001006063042084F82100002084F85D
:101240002000216B09B1204688476248D0F800C0D1
:101250004FF4806120680A010B044FF4802E58453A
:1012600002D14FF0040816E0A84202D14FF0400826
:1012700011E0B04201D188460DE0B84201D190465C
:1012800009E0484501D1F04605E0504502D14FF450
:10129000800800E098461CEA080F33D0D0F800C060
:1012A0006FEA0C0C5FEA4C7C2CD4D0F800C05FEAEB
:1012B0008C6C05D4D0F800C02CF0040CC0F800C031
:1012C0002068584501D1042113E0A84201D14021F2
:1012D0000FE0B0420DD0B84201D1114609E04845B7
:1012E00001D1714605E0504502D14FF4800100E084
:1012F000194638484160112084F82100E16A09B19B
:1013000020468847334AD2F800C05B462068511512
:101310004FF4005B4FF4003E984202D14FF00208B8
:1013200017E0A84202D14FF0200812E0B04201D1EC
:1013300088460EE0B84201D1D8460AE0484501D1BE
:10134000F04606E0504502D14FF4001801E04FF09E
:1013500000781CEA080F3BD0D0F800C06FEA0C0CF4
:101360005FEA8C7C34D4D0F800C05FEA8C6C05D482
:10137000D0F800C02CF0020CC0F800C020689842E1
:1013800001D1022114E0A84201D1202110E0B04295
:101390000ED0B84201D159460AE0484501D1714604
:1013A00006E0504502D14FF4001101E04FF000710A
:1013B0005160606B6063012084F82100002084F894
:1013C0002000A16A002903D02046BDE8F05F08474D
:1013D000BDE8F09F0000024070B520B190F82110E8
:1013E000002411B103E0012070BD80F820400221EB
:1013F00080F8211003681A6843F6F0718A43D0E937
:1014000001152943D0E9035635432943456929434A
:1014100085692943C5692943114319604463012142
:1014200080F82110002070BD70B5044690F82000AF
:10143000012823D0012084F82000022084F8210014
:101440002068056825F0010505602046FFF7FEFAD3
:101450002068016841F0020101602068016841F0E4
:10146000040101602068016841F008010160206802
:10147000016841F001010160002070BD022070BDD3
:1014800031B500F007F9044600F004F90099001B9B
:101490008842F9D338BD7047044910B50A68024242
:1014A00002D00860FFF7F7FF10BD000014040140F0
:1014B0002DE9F84FDFF8ACA100220AF1040B144625
:1014C00001274FF00F090BF1040E00BF0B6807FA5C
:1014D00004F52B40AB4276D1DFF88CC14E68A6EB09
:1014E0000C0866452BD00DDC032E34D005DC36B35A
:1014F000012E19D0022E2FD11BE0112E16D0122E44
:101500002AD119E0B8F5881F19D006DCB8F5803F5C
:1015100015D0B8F5801F1FD111E0B8F5001F0ED00F
:10152000B8F5041F18D10AE0CA6815E0CA68121D90
:1015300012E0CA6808320FE0CA680C320CE08A6810
:101540002AB1012A4FF0080203D0456104E00422C9
:1015500002E0056100E00022FF2B01D8054601E012
:1015600000F104054FEA840601D9A6F12006D5F85A
:1015700000C009FA06F82CEA080C02FA06F64CEA52
:10158000060CC5F800C04D68ED0065D5374DAE6955
:1015900046F00106AE61AD6924F0030605F00105D1
:1015A0000095334D06EB050CDCF80850A607360F06
:1015B00009FA06F825EA0805DFF8B880404503D1A6
:1015C0004FF0000817E047E0DFF8AC80404502D15B
:1015D0004FF001080FE0DFF8A480404502D14FF042
:1015E000020808E0DFF89880404502D14FF0030878
:1015F00001E04FF0040808FA06F848EA0508CCF8BC
:1016000008804D68DAF80060ED03002D554601DAD8
:101610001E4300E09E432E604D68DBF80060AD0382
:10162000002D5D4601DA1E4300E09E432E604D68AA
:10163000DEF80060ED02002D754601DA1E4300E081
:101640009E432E604D68AD02002D0E4D2E6801DACE
:101650001E4300E09E432E60641C102CFFF436AF46
:10166000BDE8F88F00040140000011100010024096
:101670000000014000080140000C01400010014042
:10168000001401400C0401400AB1016170470904D3
:10169000FBE70000014800687047000004000020DC
:1016A00002480168491C01607047000004000020E6
:1016B00010B5032000F07AF8002000F004F800F0E4
:1016C00013F8002010BD10B5044600F0DDF94FF40A
:1016D0007A71B0FBF1F001F0AFF800222146501E04
:1016E00000F044F8002010BD184808B5816941F0A9
:1016F00001018161806900F001000090032000F089
:1017000055F8002211466FF00B0000F02FF8002270
:1017100011466FF00A0000F029F8002211466FF020
:10172000090000F023F800221146101F00F01EF8F7
:1017300000221146501E00F019F80548416821F0BA
:10174000E06141F00071416008BD000000100240FE
:101750000000014000F01F020121914040094FF0BC
:10176000E02202EB8000C0F800117047F0B40E4B8D
:101770001B680C46C3F30223C3F10705042D00D9EF
:101780000425191D072901D2002300E0DB1E0126D4
:1017900006FA05F1491E214099409E40761E1640EA
:1017A0003143F0BC01F0BEBE0CED00E0064900F094
:1017B000070208684FF6FF03184040EA0220034A78
:1017C00010430860704700000CED00E00000FA05CF
:1017D00001200202034992FAA2F2B2FA82F241F81F
:1017E0002200704700000E420548016841F00201E6
:1017F00001600448016841F00401016030BF704796
:101800000070004010ED00E010B501460020174CBC
:10181000012912D002290FD100F050F961684FF46C
:10182000804292FAA2F201F44041B2FA82F2D1402F
:10183000491C4900B0FBF1F010BD226AC2F301213E
:10184000012903D1920701D5C80310BD022905D192
:10185000626A920702D549F6404010BD0329FCD1C7
:1018600021688903F9D5024810BD0000001002402C
:1018700048E801002DE9F843054600783D4CC007D3
:101880006DD0E06940F08050E061E0693A4E00F0D0
:1018900080500090306840F480703060FFF7FAFEAE
:1018A000074604E0FFF7F6FEC01B64282DD8306819
:1018B000C005F7D5206AA98800F4407001F4407192
:1018C00088424CD0206A012632042C4992FAA2F3B5
:1018D000B3FA83F320F4407041F8236092FAA2F245
:1018E000B2FA82F2002341F822302062800730D51C
:1018F000FFF7D0FEB046074641F28839022607E0DE
:10190000FFF7C8FEC11B494502D90320BDE8F88393
:1019100096FAA6F0B0FA80F040F04000B8EB501F05
:1019200001D120680BE096FAA6F0B0FA80F040F002
:101930004000B6EB501F01D1206A00E0606A96FAC1
:10194000A6F2B2FA82F202F01F0208FA02F108428D
:10195000D6D0206A696820F4407008432062287855
:10196000800705D56068A96820F44040084360609E
:101970000020CBE70010024000700040000442420B
:101980002DE9F041054600783E4C800705D560689A
:10199000A96820F0F000084360602878C00758D09C
:1019A00069680120012903D002291ED002231EE00C
:1019B0004FF400331BE000BF93FAA3F3B3FA83F3B1
:1019C00003F01F03984002421DD0606820F003001E
:1019D00008436060FFF75EFE0746686841F288369C
:1019E000012818D0022822D02FE04FF0007393FA7C
:1019F000A3F2B2FA82F242F02002520901D0226828
:101A0000DAE7626AD8E70120BDE8F081FFF742FE1D
:101A1000C01BB04217D86068C0F381000128F5D11F
:101A200017E000BFFFF736FEC01BB0420BD860685E
:101A3000C0F381000228F5D10BE000BFFFF72AFEBA
:101A4000C01BB04201D90320DEE7606810F00C0F24
:101A5000F4D12878400705D56068E96820F4E06093
:101A6000084360602878000706D56068296920F47B
:101A7000605040EAC10060600020FFF724FE0020B3
:101A8000C2E700000010024000B500F02DF8084940
:101A90004968F02292FAA2F201F0F001B2FA82F261
:101AA000D140044A515CC8400349086000BD0000B1
:101AB00000100240404700080000002000B5FFF77A
:101AC000E3FF074949684FF4605292FAA2F201F429
:101AD0006051B2FA82F2D140024A515CC84000BD66
:101AE000001002404047000810B51FA288B0D2E99C
:101AF0000003D2E90212CDE90003CDE902121EA3D0
:101B000005ACD3E901011A68DB6804920BC41E4BD3
:101B10005A681E4802F00C01042902D0082902D09C
:101B2000401008B010BD4FF4701494FAA4F402F4FD
:101B30007011B4FA84F421FA04F1D2031DF80110F3
:101B40000ED5DA6A0F2393FAA3F302F00F02B3FA69
:101B500083F3DA4004AB9A5CB0FBF2F04843E0E771
:101B60000B484843DDE700000203040506070809A7
:101B70000A0B0C0D0E0F10100102030405060708D6
:101B8000090A0B0C0D0E0F10001002400024F40087
:101B900000093D002DE9F84F05460078F94EC007D1
:101BA0004FF0010425D070686704C0F3810001285C
:101BB00007D07068C0F3810002281BD17068C00391
:101BC00018D597FAA7F0B0FA80F040F0200040094D
:101BD00001D0306800E0706A97FAA7F1B1FA81F19C
:101BE00001F01F0104FA01F1084202D068680028E0
:101BF00076D081E0306820F480303060306820F4A6
:101C000080203060FFF746FD804605E0FFF742FD8B
:101C1000A0EB080064287CD897FAA7F0B0FA80F00F
:101C200040F02000400901D0306800E0706A97FA67
:101C3000A7F1B1FA81F101F01F0104FA01F10842A4
:101C4000E4D16868B0F5803F0BD010B1B0F5A02F9B
:101C500011D0306820F480303060306820F480206B
:101C600002E0306840F480303060686820B3FFF7ED
:101C700011FD80460AE0306840F480203060F0E7D3
:101C8000FFF708FDA0EB08006428C4D897FAA7F076
:101C9000B0FA80F040F02000400901D0306800E048
:101CA000706A97FAA7F1B1FA81F101F01F0104FA05
:101CB00001F10842E4D01FE0FFF7ECFC804605E0AC
:101CC000FFF7E8FCA0EB08006428A4D897FAA7F077
:101CD000B0FA80F040F02000400902D0306801E006
:101CE000B1E0706A97FAA7F1B1FA81F101F01F0132
:101CF00004FA01F10842E3D12878DFF88C828007EA
:101D00004FF000094FF0020732D5706810F00C0F49
:101D100000E084E14FF0F80B07D07068C0F3810059
:101D2000022826D17068C00323D497FAA7F0B0FA2E
:101D300080F040F02000400901D0306800E0706A77
:101D400097FAA7F1B1FA81F101F01F0104FA01F14C
:101D5000084202D02869012875D130689BFAABF29D
:101D60006969B2FA82F220F0F800914008433060CD
:101D700059E0286988B394FAA4F1B1FA81F148F8DE
:101D80002140FFF787FC824606E000BFFFF782FC98
:101D9000A0EB0A00022898D897FAA7F0B0FA80F0D2
:101DA00040F02000400901D0306800E0706A97FAE6
:101DB000A7F1B1FA81F101F01F0104FA01F1084223
:101DC000E4D030689BFAABF220F0F8016869B2FA0F
:101DD00082F290400143316025E0FFE794FAA4F2DB
:101DE000B2FA82F248F82290FFF754FC824605E0EE
:101DF000FFF750FCA0EB0A000228CCD897FAA7F016
:101E0000B0FA80F040F02000400901D0306800E0D6
:101E1000706A97FAA7F1B1FA81F101F01F0104FA93
:101E200001F10842E4D1287800076AD55748A9692A
:101E3000A9B394FAA4F1B1FA81F140F82140FFF777
:101E400029FC824606E0A6E1FFF724FCA0EB0A008D
:101E50000228A0D897FAA7F0B0FA80F040F060000E
:101E6000B4EB501F01D130680BE097FAA7F0B0FA3D
:101E700080F040F06000B7EB501F01D1306A00E005
:101E8000706A97FAA7F1B1FA81F101F01F0104FA23
:101E900001F21042D8D00120FFF7F2FA31E0FFE75B
:101EA00094FAA4F2B2FA82F240F82290FFF7F2FB21
:101EB000824605E0FFF7EEFBA0EB0A0002289CD863
:101EC00097FAA7F0B0FA80F040F06000B4EB501F32
:101ED00001D130680BE097FAA7F0B0FA80F040F03B
:101EE0006000B7EB501F01D1306A00E0706A97FACA
:101EF000A7F1B1FA81F101F01F0104FA01F21042D9
:101F0000D8D12878400773D5F06940F08050F0614F
:101F1000F069DFF87CB000F080500090DBF8001032
:101F200041F48071CBF80010FFF7B4FB824605E066
:101F3000FFF7B0FBA0EB0A00642870D8DBF80000C4
:101F4000C005F5D5306A20F001003062306A20F01B
:101F500004003062FFF79EFB834641F2883A05E0B9
:101F6000FFF798FBA0EB0B01514558D897FAA7F063
:101F7000B0FA80F040F04000B4EB501F0AD1306856
:101F800014E000000010024000004242800442427F
:101F90000070004097FAA7F0B0FA80F040F04000DF
:101FA000B7EB501F01D1306A00E0706A97FAA7F1D1
:101FB000B1FA81F101F01F0104FA01F10842CFD119
:101FC000E86801280AD008B1052812D0306A20F04C
:101FD00001003062306A20F0040002E0306A40F014
:101FE00001003062E86890B3FFF754FB83460BE0D2
:101FF00059E0306A40F004003062EFE7FFF74AFB37
:10200000A0EB0B0151450AD897FAA7F0B0FA80F07F
:1020100040F04000B4EB501F02D130680CE09DE06E
:1020200097FAA7F0B0FA80F040F04000B7EB501FED
:1020300001D1306A00E0706A97FAA7F1B1FA81F134
:1020400001F01F0204FA02F10842D7D02BE0FFE7AB
:10205000FFF720FB834605E0FFF71CFBA0EB0B011D
:1020600051457BD897FAA7F0B0FA80F040F04000D5
:10207000B4EB501F01D130680BE097FAA7F0B0FA2B
:1020800080F040F04000B7EB501F01D1306A00E013
:10209000706A97FAA7F1B1FA81F101F01F0204FA10
:1020A00002F10842D8D1E86980B37168C1F38101B7
:1020B000022970D04FF080714F0002284A4609D0A3
:1020C00091FAA1F1B1FA81F148F82120FFF7E2FA83
:1020D000054669E08A4691FAA1F1B1FA81F1C1465B
:1020E00048F82120FFF7D6FA804605E0FFF7D2FA3C
:1020F000A0EB0800022854D897FAA7F0B0FA80F0B5
:1021000040F02000400902D0306801E061E0706AD0
:1021100097FAA7F1B1FA81F101F01F0104FA01F178
:102120000842E3D1286AB0F5803F05D1F06AA9687A
:1021300020F00F000843F062D5E9080108437168F8
:1021400021F47411084370609AFAAAF1B1FA81F18E
:1021500049F82140FFF79EFA054606E021E000BF5E
:10216000FFF798FA401B02281BD897FAA7F0B0FA9D
:1021700080F040F02000400901D0306800E0706A33
:1021800097FAA7F1B1FA81F101F01F0104FA01F108
:102190000842E5D01DE01EE0FFF77CFA401B022854
:1021A00002D90320BDE8F88F97FAA7F0B0FA80F0C3
:1021B00040F02000400901D0306800E0706A97FAD2
:1021C000A7F1B1FA81F101F01F0104FA01F108420F
:1021D000E2D10020E6E70120E4E70000024850F8E1
:1021E000210080B270470000006C0040024800EB04
:1021F000810091B201607047006C004070B504002E
:1022000003D0607C002610B105E0012070BD26746B
:10221000204600F043F802206074204600F016F9D2
:10222000042578BB204601F0DCF958BB20684168E2
:1022300021F007014160A06820B11748016821F032
:10224000010101601448001F0168A26821F4607157
:10225000114301606068411C04D10120FFF7D4FAEA
:1022600080B1401E21688A6822F00F0242EA1042C3
:102270008A602168CA6860F30F02CA60204601F0D4
:10228000CBF908B16574C0E7E67301206073A073F1
:102290006074002070BD0000306C004008B500681C
:1022A0000B49884213D1FFF793FA0A48C16941F0FC
:1022B0000061C161C069084900F000600090012020
:1022C000C20392FAA2F2B2FA82F241F8220008BDE9
:1022D0000028004000100240000442422DE9F04175
:1022E0000D4604003BD0C5B3207C01283AD04FF006
:1022F000010884F8108002206074E87872B301F05D
:1023000067F9E073687801F063F96073A87801F009
:102310005FF9A073C2B2617BE07B01F0AFF920737B
:102320002870204601F09AF94FF46161B0FBF1F199
:10233000002518292DD91822B1FBF2F1A1EB0111CA
:1023400001EB4101C1EB011100EBC1163146204602
:1023500001F0D4F90427C8B90BE000E004E0012043
:10236000BDE8F0810220FBE7E07368786073A8782D
:10237000CFE7204601F06BF9411C0AD0B04208D2E9
:1023800006490144204601F0A5F910B1677425748F
:10239000E5E784F8118025740020E1E78051010011
:1023A0002DE9F0410D46040024D01DB3207C012806
:1023B00023D04FF0010884F8108002206074287840
:1023C000EAB101F005F94FF4616100FB01F66878AC
:1023D00001F0FEF8C0EB001006EB8006A87801F0D3
:1023E000F7F835182946204601F088F90026042719
:1023F00010BB0FE00120BDE8F0810220FBE74FF4A5
:10240000616148436978C1EB011100EB8100A97853
:102410004518E7E72068416821F005014160204642
:1024200001F015F9411C0AD0A84208D2064901441E
:10243000204601F04FF910B167742674DAE784F88A
:10244000118026740020D6E78051010070B5040089
:102450000AD02068416821F008014160FFF71AF9AD
:1024600005464FF47A7608E0012070BDFFF712F9B7
:10247000401BB04201D9032070BD206840680007AE
:10248000F4D5002070BD000010B5040003D094F80E
:10249000510010B104E0012010BD204600F034F8D6
:1024A000022084F851002068016821F04001016099
:1024B000D4E901010843D4E90312114308436169D7
:1024C0000843218B01F400710843E1690843216A44
:1024D0000843A16A084321680860A069042101EA51
:1024E0001040616A0843216848602168E06A086119
:1024F0000449002008706065012084F85100002024
:1025000010BD00000800002010B50068134986B017
:10251000884221D11248816941F4805181618069EA
:10252000104C00F48050049028200090022001906C
:102530000320039069462046FEF7BAFF00211020D1
:10254000CDE90001029169462046FEF7B1FF064839
:10255000416841F00101416006B010BD003001400A
:1025600000100240000C0140000001402DE9F8433A
:102570000025DDF820800446ADF8005090F85100A9
:10258000012803D094F8510022287DD169B162B1AD
:102590005BB194F85000012876D0012684F8506091
:1025A00094F85100012803D005E00120BDE8F8832C
:1025B000322084F851006565A263A387E387216315
:1025C000A386E386A564E564A06A4FF40057B84289
:1025D00009D12068016821F4005101602068016878
:1025E00041F40051016020680168490603D4016884
:1025F00041F040010160E0684FF48271B0F5006F76
:10260000606807D0002867D088426ED1E08E01282C
:1026100062D06AE020B188420CD1E08E012809D155
:10262000206B21680088C860206B801C2063E08ECE
:10263000401EE086E08E80B9A06AB84244D120688E
:10264000016841F4805101603EE02068C068A16BE0
:102650000880A06B801CA0639EE0434600220221FC
:10266000204601F093F8002874D1206B216800887F
:10267000C860206B801C2063E08E401E0004000CAC
:10268000E08609D1A06A00E0C7E0B84204D1206822
:10269000016841F480510160434600220121204637
:1026A00001F074F800286FD12068C068A16B088021
:1026B000A06B801CA063E08F401EE087E08E0028A6
:1026C000CBD1606800286AD1434600220121204610
:1026D00001F05CF8F0BBB8E7206B411C2163216876
:1026E0000078C860E08E401EE086E08E98B9A06A4F
:1026F000B84204D12068016841F48051016043462A
:1027000000220121204601F041F818BB2068C06872
:10271000A16B087040E0434600220221204601F0F0
:1027200035F8B8B9206B411C216321680078C86076
:10273000E08E401E0004000CE08607D1A06AB8427B
:1027400004D12068016841F48051016000224346B1
:10275000012100E018E0204601F018F8A0B9206837
:10276000C168A06B421CA2630170E08F401EE0872D
:10277000E08E0028CFD1606888B94346002201214D
:10278000204601F003F808B103200FE72068C16874
:10279000A06B421CA2630170E08F401EE087A06A1C
:1027A000B84210D1434600220121204600F0EEFF3E
:1027B00018B1606D40F002000FE02068C068ADF80D
:1027C0000000BDF80000434601228021204600F0B1
:1027D000DDFF20B1606D40F010006065D4E784F843
:1027E0005160A06AB84214D120688168C943C90603
:1027F0000FD4616D41F002016165016821F400515F
:1028000001602068016841F40051016084F8505073
:10281000CBE684F850500020C8E60220C6E64FF010
:10282000E0210428086903D020F004000861704703
:1028300040F00400FAE7704710B5401EB0F1807F09
:1028400001D3012010BD4FF0E02460610F2160171B
:1028500000F068FE0020A06107202061002010BD6C
:1028600010B5FFF7E8FF10BD7047704730B590F81E
:102870003820012A19D0012200F8382F0223437092
:10288000D1E900342343D1E902452C4323430C69A9
:1028900023434C69896923430B4350F8381C4B642C
:1028A000427000210170084630BD022030BD30B5B5
:1028B00090F83820012A20D0012280F83820022305
:1028C00080F8393003685C6824F070045C60036849
:1028D0005C680D682C435C6003689C6824F080048D
:1028E0009C6003689C6849680C439C6080F83920B0
:1028F000002180F83810084630BD022030BD10B5E8
:10290000040003D094F8390010B107E0012010BD95
:10291000002084F83800204600F00CF8022084F8EB
:102920003900211D206801F049FA012084F839009E
:10293000002010BD08B52C4A01682C4891420ED1E8
:10294000816941F4006181618069002200F40060C6
:10295000009004211920FEF709FF192034E0244AD1
:1029600091420ED1C16941F00201C161C0690022EA
:1029700000F00200009005211D20FEF7F7FE1D204B
:1029800022E01C4A91420ED1C16941F00401C161AB
:10299000C069002200F00400009006211E20FEF70E
:1029A000E5FE1E2010E0144A914211D1C16941F0A8
:1029B0001001C161C069002200F0100000900721E1
:1029C0003620FEF7D3FE3620BDE80840FEF7C2BE33
:1029D0000A4A914207D1C16941F02001C161C06931
:1029E00000F02000009008BD002C014000100240C3
:1029F00000040040000800400010004000140040A7
:102A00000168CA6842F00102CA600068016841F0CA
:102A1000010101600020704770B5044690F838004D
:102A2000012817D0012584F83850022084F8390095
:102A30002068826822F0770222F47F428260086870
:102A4000502837D00DDC202858D005DC88B310285A
:102A500041D150E0022070BD302852D040283AD1F8
:102A60003EE060282ED070280BD0B0F5805F03D0F8
:102A7000B0F5005F2FD110E02068816821F00701D8
:102A800015E04A68083120680AC901F0EAF92168AE
:102A9000886840F0770088601DE04A680831206847
:102AA0000AC901F0DEF92068816841F48041816043
:102AB00011E01DE0CA684968206801F0CFFA502192
:102AC000206806E0CA684968206801F0D8FA6021E9
:102AD000206801F0D0F9383465700020207070BD96
:102AE000CA684968206801F0B9FA40212068F0E717
:102AF00000212068EDE710212068EAE72021206806
:102B0000E7E730212068E4E7704770B504460068C5
:102B100001694FF00005C943890715D4C168C9434D
:102B2000890711D4E91E016101202076206880699F
:102B30008007204602D0FFF7E7FF04E000F0C4F86A
:102B4000204600F063F9257620680169C9434907EA
:102B500017D4C168C943490713D46FF00401016158
:102B6000022020762068806910F4407F204602D041
:102B7000FFF7CAFF04E000F0A7F8204600F046F98E
:102B8000257620680169C943090716D4C168C9437D
:102B9000090712D46FF00801016104202076206833
:102BA000C0698007204602D0FFF7AEFF04E000F0C6
:102BB0008BF8204600F02AF9257620680169C94380
:102BC000C90617D4C168C943C90613D46FF01001F0
:102BD0000161082020762068C06910F4407F2046FB
:102BE00002D0FFF791FF04E000F06EF8204600F0FD
:102BF0000DF9257620680169C943C90708D1C16864
:102C0000C943C90704D1891E0161204600F05EF95D
:102C100020680169C943090609D4C168C943090686
:102C200005D46FF0800101612046FFF71DFE20688A
:102C30000169C943490609D4C168C943490605D495
:102C40006FF040010161204600F041F92068016900
:102C5000C94389060BD4C168C943890607D46FF0FC
:102C6000200101612046BDE87040FFF7FEBD70BD48
:102C70001FB501680220B1F1804F0BD00E4A91427E
:102C800007D10C21CDE90010039069460B48FEF7EF
:102C90000FFC1FBD4FF44061CDE900100390694661
:102CA0000748FEF705FC0748416821F4407141F4EC
:102CB000007141601FBD000000400140000801405C
:102CC000000C014000000140704770B5044690F8C8
:102CD00038000D4601280DD0012684F83860022006
:102CE00084F8390042B1042A18D0082A2AD00C2AC4
:102CF0004DD139E0022070BD206801F0C5F8206890
:102D0000816941F0080181612068816921F0040135
:102D10008161206881692A69114311E0206801F00E
:102D2000F3F82068816941F400618161206881695C
:102D300021F480618161206881692A6941EA022168
:102D4000816124E0206801F01BF92068C16941F02D
:102D50000801C1612068C16921F00401C1612068D6
:102D6000C1692A69114311E0206801F045F9206822
:102D7000C16941F40061C1612068C16921F48061C9
:102D8000C1612068C1692A6941EA0221C161383400
:102D900066700020207070BD10B5040003D094F858
:102DA000390010B107E0012010BD002084F8380080
:102DB000204600F00DF8022084F83900211D20681B
:102DC00000F0FCFF012084F83900002010BD000055
:102DD00008B501680B48B1F1804F0BD00A4A914207
:102DE00007D1816941F480318161806900F48030CC
:102DF000009008BDC16941F00101C161C06900F0E6
:102E00000100F5E70010024000400140704700005B
:102E100010B504460068012201F018F80B4821683B
:102E2000814208D00A48814205D00A48814202D036
:102E30000948814203D1486C40F40040486420684E
:102E4000016841F001010160002010BD002C01402B
:102E500000400140004401400048014010B50446D4
:102E60000068002200F0F2FF144841F211122168BC
:102E70009310814208D01248814205D01148814206
:102E800002D01148814209D1086A104206D1086A6D
:102E9000184203D1486C20F4004048642068016A5D
:102EA000114206D1016A194203D1016821F00101E2
:102EB0000160012084F83900002010BD002C014081
:102EC0000040014000440140004801407047704705
:102ED000FEE7000070B5FDF73BFC1A4D68B3012119
:102EE0001948FFF77BF91949888002211648FFF736
:102EF00075F916493039088003211348FFF76EF938
:102F000012491839088004210F48FFF767F905F1C5
:102F10003804052120800C48FFF760F960802068A4
:102F2000E86206210848FFF759F920800721064882
:102F3000FFF754F96080206801E00020E862286310
:102F400070BD00001800002030010020C4030020E4
:102F5000FEB52648244900240160891501254461F5
:102F6000C0E90215082606614FF460214460C16182
:102F7000FDF7BAFF07278DE8B00069461B48FDF74B
:102F8000FBFE0220CDE9005069461848FDF7F4FE2B
:102F9000042503200095CDE9010469461348FDF797
:102FA000EBFE052469461148CDE90045FDF7E4FE36
:102FB0000625CDE9005469460C48FDF7DDFECDE954
:102FC000007569460948FDF7D7FE69460748CDE90F
:102FD0000067FDF7D1FE0920CDE9000669460348E8
:102FE000FDF7CAFEFEBD000000240140C80000201D
:102FF0002DE9F04F434885B0816941F010018161AE
:10300000816901F010010491816941F02001816121
:10301000816901F020010491816941F0040181611D
:10302000816901F004010491816941F00801816125
:103030008069354F00F008004FF4005404900022DE
:1030400021463846FEF720FBDFF8C0B04FF41E499A
:10305000002249465846FEF717FB4FF4007A00223B
:1030600051462B48FEF710FB1120CDE90040022508
:10307000694603953846FEF71BFA264E4FF440404A
:10308000CDE900060124694602943846FEF710FA9D
:103090004FF2C4000327CDE9000769461C48FEF73C
:1030A00007FA4FF48078CDE9008769465846FEF765
:1030B000FFF9CDE90094694658460395FEF7F8F903
:1030C000CDF80080CDE9016469461148FEF7F0F9BA
:1030D000CDE900A469460E480395FEF7E9F9002200
:1030E00002211720FEF742FB1720FEF733FB0022D8
:1030F00001212820FEF73AFB2820FEF72BFB05B024
:10310000BDE8F08F001002400010014000080140AF
:10311000000C0140000021100C480B494FF40072D4
:1031200001604FF48271416000218160C1600161E2
:10313000C0E905122022C0E90721416281620A210B
:10314000C162FFF7A1B90000003001404401002036
:1031500010B51D4890B01B490024C0E900144FF47D
:10316000C871C0E9024104614461FFF715FE0E9485
:103170000EA915480F94FFF79AFB07940894099439
:103180004FF400500A94CDE90B4007A90E480D9466
:10319000FFF76CFB6020CDE90004029403940494D3
:1031A00005940022694608480694FFF78EFD042224
:1031B00069460548FFF789FD0348FFF759FD10B040
:1031C00010BD0000004001400403002010B511486C
:1031D00086B00F49016045F6BF510024C0E90114D3
:1031E0004FF47A71C0E903144461FFF788FB4FF490
:1031F0008050009069460748FFF70EFC2020CDE97B
:10320000040404A90348FFF752FB06B010BD0000F8
:10321000002C01409C01002010B514488AB04FF0EA
:1032200080410024C0E900144FF4C871C0E9024194
:103230000461FFF7B1FD079407A90C480894FFF754
:1032400036FB6020CDE90004029408226946074855
:103250000494FFF73AFD0C2269460448FFF735FD58
:103260000248FFF705FD0AB010BD0000D80100209C
:10327000FEE7704770B572B60022474E4FF4004526
:1032800029463046FEF700FA072001F015FA002023
:1032900001F012FA414C0122294620713046FEF716
:1032A000F3F92079400618D53D4801F03FF9206236
:1032B00000F008FF002229463046FEF7E5F92720F6
:1032C00001F0FAF9207901F0F7F901222946304698
:1032D000FEF7DAF9324800F035F92079C0061FD53B
:1032E000002229463046FEF7CFF9272001F0E4F905
:1032F000207901F0E1F9012229463046FEF7C4F9B0
:1033000060790022401C607129463046FEF7BCF906
:10331000E12001F0D1F9012229463046FEF7B4F947
:103320002079C0070CD0002229463046FEF7ACF9C0
:10333000E12001F0C1F9012229463046FEF7A4F947
:103340002079800616D50020E0716071024629467A
:103350003046FEF799F9272001F0AEF9207901F007
:10336000ABF9012229463046FEF78EF9A07908B163
:1033700001F02AF9002229463046FEF785F9272078
:1033800001F09AF9207901F097F901222946304697
:10339000FEF77AF962B670BD0008014018000020FF
:1033A0004003002070B572B60122494DD403214676
:1033B0002846FEF769F90022E1102846FEF764F975
:1033C000002221462846FEF75FF9502001F074F9EB
:1033D000732001F071F9012221462846FEF754F9C5
:1033E000002221462846FEF74FF9202001F064F91B
:1033F0000F2001F061F9012221462846FEF744F929
:10340000002221462846FEF73FF9242001F054F916
:10341000232001F051F9012221462846FEF734F914
:10342000002221462846FEF72FF93D2001F044F9FD
:10343000062001F041F9012221462846FEF724F931
:10344000002221462846FEF71FF93C2001F034F9FE
:103450003F2001F031F9012221462846FEF714F9F8
:10346000002221462846FEF70FF9262001F024F914
:103470000E2001F021F9012221462846FEF704F929
:103480000A2000F03BFE002221462846FEF7FCF809
:10349000E22001F011F9012221462846FEF7F4F856
:1034A000002221462846FEF7EFF8E12001F004F95A
:1034B000012221462846FEF7E7F800F003FE054802
:1034C00000F0C8FA034901204039887162B670BD26
:1034D000000801405800002070B572B600220F4C61
:1034E0004FF480512046FEF7CFF84FF400450022FC
:1034F00029462046FEF7C8F8202001F0DDF8082014
:1035000001F0DAF8012229462046FEF7BDF8044909
:10351000002088714872087262B670BD00080140D0
:10352000180000200907090E002803DA00F00F0038
:10353000024A00E0024A81547047000014ED00E0A6
:1035400000E400E02DE9F04107781F4A813F0021A7
:103550001E4EA2F13004A2F11805052F2FD2DFE88C
:1035600007F00313282A2C00417801B1012191743E
:10357000817801B101216172C17801B101216972C3
:10358000007900F0F3F81AE01049437816310B7017
:1035900083784B700B889380C2780A7002794A70E6
:1035A0000A88228042790A708079487008882880C9
:1035B00005E0F16203E0316301E000F08DF9BDE860
:1035C000F04100F033B90000C403002018000020CF
:1035D000010901EB810100F00F0000EB4100C0B2D6
:1035E000704770B50446FEF755F805464FF47A76F5
:1035F00006E0FEF74FF8401BB04201D9032070BD32
:10360000206840688006F4D52068416841F01001C8
:103610004160002070BD000070B50446006841683C
:1036200021F010014160FEF735F805464FF47A7637
:1036300007E000BFFEF72EF8401BB04201D903207F
:1036400070BD206840688006F4D5002070BD016818
:10365000086A496A89B241EA004070470068816996
:103660008AB2C1698BB2816989B28A4203D0C069CA
:1036700061F31F40704743EA0240704730B5C1EB29
:10368000C10404EB01140925B4FBF5F400F5FA6359
:1036900022441846104464229400072503290AD2C4
:1036A0005B1EB3FBF2F100EB9300401AB3FBF4F1A5
:1036B0000844001D08E0B3FBF2F100EB9300401A50
:1036C000B3FBF4F10844801CB0FBF5F105FB1100DD
:1036D000C0B230BD70B50D4606460024FFF781FF2D
:1036E00048B93168280C08623168A8B2486230468F
:1036F000FFF792FF00B10124204670BD70B50D4662
:1037000006460024FFF76DFF48B93168280C886130
:103710003168A8B2C8613046FFF77EFF00B10124CE
:10372000204670BD0348C07810B1002000F004B8F6
:103730000120FBE7180000200549064BC8704FF434
:10374000006108B1012200E000221846FDF79CBF8D
:1037500018000020000801400348807810B10020C4
:1037600000F004B80120FBE7180000200549064BD3
:1037700088704FF4007108B1012200E00022184661
:10378000FDF782BF18000020000801402DE9F04736
:103790001D4690460E460446FDF77CFF07465FEA4D
:1037A00008004FF000084FF4005A4FF0010926D0EE
:1037B00034E0681C23D025B1FDF76CFFC01BA84284
:1037C0001DD92068416821F0E0014160206801684E
:1037D00021F040010160A06A504509D120680168CC
:1037E00021F4005101602068016841F4005101603A
:1037F00084F8519084F850800320BDE8F087206859
:10380000806836EA0000D4D10DE0681C06D0002D97
:10381000D7D0FDF73FFFC01BA842D2D820688068F0
:1038200036EA0000F1D00020E7E700002DE9F0477C
:10383000264E0024B07B002846D0254F06F13805DF
:10384000A7F13008A7F11809BA880121544021488E
:10385000FEF7CCFCB8F80020022154401D48FEF7CA
:10386000C5FCB9F80020032154401A48FEF7BEFCFD
:10387000F06A28602A88042154401648FEF7B6FCF6
:103880006A88052154401348FEF7B0FC306B28606D
:103890002A88062154400F48FEF7A8FC6A880721B1
:1038A00054400C48FEF7A2FCAA2209210948FEF761
:1038B0009DFC22460A210748FEF798FCFCF748FFCA
:1038C0000028C1D00120F073BDE8F0871800002067
:1038D000C40300203001002010B508480224012153
:1038E0000470417000F0FCFE012000F007FC21464E
:1038F000BDE81040014800F091BE000061030020C7
:103900002DE9F0414F4C01204F4D2070607004F1C3
:1039100093002946408828802846A1F11606407861
:10392000A07028460078E07004F1930000880880B9
:103930000846407820710846263100786071F06AA8
:1039400008600846C078A07108468078E071084693
:10395000407820720846007860723046006B08603C
:103960000846C078A07208468078E0720846407821
:10397000207308460078607330468069FCF768FD64
:10398000324F00223B46FCF743FCFCF748FD29463A
:10399000088008464078A07308460078E0733046F7
:1039A000C069FCF755FD00223B46FCF731FCFCF7F3
:1039B00036FD2946264F0880084640782074084680
:1039C00000210078607404F16300027D084662F310
:1039D000000004F13302D27A62F3410004F14B0299
:1039E000D27A62F382003246927862F3C3003246A2
:1039F000D27A62F30410EA1E1070133AD172A074E6
:103A00001046446B2046FCF723FD00223B46FCF7A2
:103A1000FFFBFCF704FDB4F5000F01DA00F50040F0
:103A2000288008486978C17429780175B18A29808D
:103A30006978417529788175BDE8F041172100F05A
:103A4000EDBD0000610300202E0000200000594061
:103A5000000024402DE9F041054672B61E2000F01A
:103A60004DFB00F02FFB1A4F4FF400460022314669
:103A70003846FDF709FE2A2000F01EFE0024285DCE
:103A800000F01AFE641CE4B2052CF8D30122314682
:103A90003846FDF7F9FD002231463846FDF7F4FDC2
:103AA000302000F009FE0024285D00F005FE641CB3
:103AB000E4B2052CF8D3012231463846FDF7E4FD87
:103AC0001E2000F01BFB00F0FDFA62B6BDE8F0819D
:103AD0000008014070B50446807C217D884204D0F6
:103AE0002046BDE8704000F045B8002821D0A588E8
:103AF000207CFDF7B3F80646607CFDF7F9F860809E
:103B0000E680AE4204D92046BDE8704000F04EB8D1
:103B10000FD2A16A096811B12188814204D92046D7
:103B2000BDE8704000F050B8204600F03FF801209A
:103B3000E07470BD70B50446407AE17A884204D0E2
:103B40002046BDE8704000F050B8002811D025880C
:103B5000207AFDF7CDF86080A84204D92046BDE860
:103B6000704000F054B804D22046BDE8704000F028
:103B700058B870BD70B50446827CC069616A002582
:103B80003AB1FFF745F9216AA069FFF741F9E574F9
:103B900009E0FFF763F9216AA069FFF75FF9E06ABE
:103BA0000560A06A0560A07C207570BD816A0A6806
:103BB0001AB10868401E08607047C16A0A68002A86
:103BC000F7D10121C1747047C16A0A68C3899A425A
:103BD00004D3816A0A6803899A4203D20868401CA8
:103BE000086070470121C174704770B50446427A7D
:103BF000D4E9030100251AB1FFF70AF9A57203E021
:103C0000FFF72CF960690560607AE07270BD416968
:103C10000A681AB10868401E086070470121817265
:103C2000704741690A6883889A4203D20868401C39
:103C30000860704701218172704710B5FDF730FDB3
:103C4000BDE81040FEF70CBE30B593B009200090DF
:103C500001214FF4803003250691CDE901050224AE
:103C6000CDE90740000109906846FDF793FF0F205A
:103C7000CDE90A0400240C940D9421460AA80E9460
:103C8000FDF77EFE4FF40070CDE910040F950FA8EC
:103C9000FDF7F0FDFDF7F8FE4FF47A71B0FBF1F09F
:103CA000FEF7CAFD0420FEF7BAFD00221146501EA1
:103CB000FDF75CFD13B030BD0E48016841F0010115
:103CC000016041680C4A1140416001680B4A114093
:103CD0000160016821F480210160416821F4FE0146
:103CE00041604FF41F0181600021C1620449C0039B
:103CF00008607047001002400000FFF8FFFFF6FE6A
:103D000008ED00E010B50548FEF7FFFE034900206E
:103D100009684862BDE81040FCF780BD9C010020A6
:103D200010B50A48FEF7F1FE08490020096848620C
:103D30000749086007490120887007480078002873
:103D400003D1BDE81040FFF771BD10BD1402002083
:103D5000300000200C0000202700002010B50A4889
:103D6000FEF7D3FE08490020096848620749086049
:103D700007490120C87007480078002803D1BDE832
:103D80001040FFF753BD10BD50020020340000204A
:103D90000C0000202700002010B50748FEF7B5FEF4
:103DA0000549002009684862FCF768FDFCF7A2FDA0
:103DB000BDE81040FCF732BE8C020020F0B502686E
:103DC0001C4B1D4C1D4D4FF0804E984205D0704548
:103DD00003D0A04201D0A84203D122F070064A6865
:103DE0003243174E174FDFF860C098420BD0704532
:103DF00009D0A04207D0A84205D0B04203D0B842B3
:103E000001D0604503D122F44074CA6822430260A5
:103E10008A68C2620A688262984205D0B04203D0C2
:103E2000B84201D0604501D10969016301214161B6
:103E3000F0BD0000002C01400004004000080040DC
:103E400000400140004401400048014010B50123FA
:103E5000046A8B409C430462036A8A4013430362F2
:103E600010BD10B5846842EA032224F47F440A435B
:103E70002243826010BD826822F070020A4342F041
:103E80000701816070470000F0B5026A22F001026C
:103E90000262036A42688469184E24F073050C6854
:103EA000174F2C4323F002058B68DFF858C02B43D3
:103EB000114DA84205D0B04203D0B84201D06045B0
:103EC00006D123F0080ECB6843EA0E0323F0040367
:103ED000A84205D0B04203D0B84201D0604505D118
:103EE0004D6922F4407215438A692A434260846115
:103EF000496841630362F0BD002C0140004001406D
:103F0000004401400048014030B5026A22F010022E
:103F10000262026A436884690D6824F4E64444EA54
:103F200005248D6822F0200242EA0512104DA842B5
:103F300007D1CD6822F0800242EA051222F0400249
:103F400008E00C4DA84205D00B4DA84202D00B4D05
:103F5000A84207D14D6923F4406343EA85038D6984
:103F600043EA85034360846149688163026230BD2E
:103F7000002C014000400140004401400048014045
:103F800030B5026A22F480720262036A4268C46930
:103F900023F4007324F073050C682C438D6843EA06
:103FA0000523114DA84207D1CD6823F4006343EAED
:103FB000052323F4806308E00C4DA84205D00C4D86
:103FC000A84202D00B4DA84207D14D6922F44052BD
:103FD00042EA05128D6942EA05124260C4614968ED
:103FE000C163036230BD0000002C0140004001406D
:103FF000004401400048014030B5026A22F480527A
:104000000262046A4268C3690D6823F4E64343EA26
:1040100005238D6824F4005444EA05340B4DA8426E
:1040200008D00B4DA84205D00A4DA84202D00A4D37
:10403000A84204D14D6922F4804242EA85124260CE
:10404000C36149680164046230BD0000002C014076
:1040500000400140004401400048014010B5036A9F
:10406000046A24F001040462846924F0F00444EA40
:10407000021423F00A020A438461026210BD10B5E3
:10408000036A23F0100303628369046A23F4704314
:1040900043EA023224F0A00343EA01118261016283
:1040A00010BDFEE702E008C8121F08C1002AFAD1BD
:1040B00070477047002001E001C1121F002AFBD1A8
:1040C0007047000070B500F017FA0B4E04464FF42D
:1040D0000045002229463046FDF7D6FA272000F099
:1040E000EBFA204600F0E8FA29463046BDE8704079
:1040F0000122FDF7C9BA00000008014000B50246E0
:104100004FF47A7302E0184600F006F81000A2F1AE
:10411000010292B2F7D100BD0449897C48430321D2
:10412000B0FBF1F0401EFDD27047000018000020E7
:1041300086B0FDF7BDFAFFF787FDFEF759FF9748F8
:10414000416941F0010141614069002200F0010034
:10415000009011460B20FDF709FB0B20FDF7FAFA42
:10416000FEF7F6FEFEF7D8FFFFF756F8FEF7F0FF72
:10417000FFF72CF88B488A490024016040F65F1154
:10418000C0E9011446F66051C0E90314FEF7B7FB1D
:104190004FF48050009069468248FEF73DFC202095
:1041A000CDE9040404A97F48FEF781FB7D497E48E0
:1041B0003C31086040F65F104860084684604FF468
:1041C000FA40C86008460461FEF799FB4FF480503E
:1041D0000090744869463C30FEF71EFC2020CDE973
:1041E0000404704804A93C30FEF761FB6D486F4938
:1041F0007830016045F6BF51C0E901143221C16039
:10420000FEF77DFB2020CDE9000466486946783042
:10421000FEF74DFB63486649B430016045F6BF5177
:10422000C0E90114C460FEF76AFB1020CDE9000468
:104230005C486946B430FEF73AFB5A485D49E438B9
:104240000160611EC0E90114FDF7D8FF01258DF85A
:10425000045054488DF805408DF806402A4601A9BF
:10426000E438FEF79DF88DF800508DF801504D4868
:104270008DF802508DF8034001226946E438FEF7BC
:104280002DF8FDF701FCFCF7A9F800224A4BFCF7DA
:1042900031F8FCF7C4F84949887442487838FEF789
:1042A000AFFB4048FEF7ACFB3E483C30FEF7A8FBB6
:1042B0003C487830FEF7A4FB414840F6C4118180A9
:1042C0004FF42F61C18040F6B8310181C5724FF4BF
:1042D000FA70FDF7D5F8FFF7F5FEFFF763F800F089
:1042E000FFF962B60822374901F13000FCF7D6FE2B
:1042F000344860300068016881F00E010160304888
:1043000002216038A0F190030172C4724FF49671DB
:104310008180C4802C4AC360C0E9044242F210721A
:1043200002804472183003220272C472FA22828020
:10433000C480254EC3600423361DC0E9043641F60F
:10434000191606804472183003741D4B0520303B4B
:10435000587418468180194641F2707008804FF4F5
:10436000C870C88108460281A0F5F670C8611A4677
:10437000082151621549D162114688610C200862FA
:104380001248001D88620846047584740B488573C2
:10439000FEF7A0FDFCF732FAFCE700000010024037
:1043A00000040040140200200008004000100040FB
:1043B000001400400028004080842E411800002096
:1043C000F403002098000020344001403C000040ED
:1043D000154A00B54FF4005353610620FFF79CFEC9
:1043E00013610A20FFF798FE506820F440105060D7
:1043F000506820F440005060506840F480005060E5
:104400009068C0F3403390688004FCD5506840F455
:1044100040105060506840F4800050600A20FFF760
:104420007BFE184600BD000000100140194A00B58F
:104430004FF4005313610A20FFF76EFE53614FF4EF
:10444000FA70FFF769FE1361506820F44010506065
:10445000506820F440005060506840F48000506084
:104460004620FFF759FE906840F3403303F1010303
:1044700090688004FCD5506840F44010506050684B
:1044800040F4800050604FF4E170FFF745FE18469D
:1044900000BD00000010014010B50A4C4FF400535D
:1044A0000200636101D0052000E04620FFF734FEE2
:1044B00023610AB1462000E00520BDE81040FFF767
:1044C0002BBE00000010014030B505465FF000042F
:1044D00025FA04F000F00100FFF7DEFF641CE4B2EF
:1044E000082CF5D330BD000001490248FCF7E0BFBD
:1044F000B80000200010014070B50B4E4FF400458D
:10450000002229463046FDF7BFF8072000F0D4F816
:10451000002000F0D1F80446012229463046FDF77C
:10452000B3F8204670BD0000000801402DE9F041BD
:10453000804672B60022214F4FF40046314638467D
:10454000FDF7A2F8602000F0B7F8002000F0B4F802
:104550000546012231463846FDF796F800223146DD
:104560003846FDF791F8612000F0A6F8002406E037
:10457000002000F0A1F808F80400641CE4B2AC428A
:10458000F6D3012231463846FDF77EF80022314647
:104590003846FDF779F8E22000F08EF80122314626
:1045A0003846FDF771F8064900200855FFF78AFDE7
:1045B0000448057462B62846BDE8F0810008014051
:1045C000400300201800002070B572B60122114C83
:1045D00011032046FDF758F84FF400450022294604
:1045E0002046FDF751F8202000F066F80F2000F07B
:1045F00063F8012229462046FDF746F80220FFF71E
:104600007DFD05480121002281714272017262B66E
:1046100070BD000000080140180000202DE9F0479F
:10462000234F82460024B8790E4600283ED072B649
:104630003E744FF40049DFF87C8035E0FFF75CFF03
:10464000C007FBD1FFF73EFD00224D4649464046DC
:10465000FDF71AF8E12000F02FF801222946404624
:10466000FDF712F80A20FFF757FD002229464046C1
:10467000FDF70AF8A02000F01FF8002508E000BFB1
:104680001AF8040000F018F8641C6D1CE4B2EDB2D6
:10469000B44201D21F2DF3D3012249464046FCF714
:1046A000F3FF0120F87162B6B442C7D3BDE8F087CA
:1046B000180000200008014001B582B04FF480507E
:1046C00000900123044A02A90448FDF74FFF024865
:1046D0001138407C0EBD000029000020440100205C
:1046E00070B572B60022144D4FF48054214628460E
:1046F000FCF7CAFFE600002231462846FCF7C4FF5B
:104700002020FFF7D9FF0E20FFF7D6FF0122314608
:104710002846FCF7B9FF012221462846FCF7B4FFE2
:104720000120FFF7EBFC0548012181714172002156
:10473000017262B670BD0000000801401800002040
:104740000000000001020304010203040607080937
:10475000704700080000002098000000A4400008F6
:10476000084800089800002068070000B4400008CE
:1047700000366E0100000000000000000000010192
:104780000000000000000000000000000000000029
:104790000000000000000000000000000000000019
:1047A0000000000000000000000000000000000009
:1047B00000000000000000000000000000000000F9
:1047C0000000000000000000FFFFFFFF02010203E5
:1047D000050400006740D33A6740533ACDE4903B6C
:1047E000826B8A3BD82C7F3A7260E83A9C6BD63A4F
:1047F0004FDB603AAD077A084F098F0AF40B0000CF
:084800000000000000000000B0
:0400000508000121CD
:00000001FF
